{
  "_format": "hh-sol-artifact-1",
  "contractName": "WhisperBidBasic",
  "sourceName": "contracts/WhisperBidBasic.sol",
  "abi": [
    {
      "inputs": [],
      "stateMutability": "nonpayable",
      "type": "constructor"
    },
    {
      "anonymous": false,
      "inputs": [
        {
          "indexed": true,
          "internalType": "uint256",
          "name": "auctionId",
          "type": "uint256"
        },
        {
          "indexed": true,
          "internalType": "address",
          "name": "seller",
          "type": "address"
        },
        {
          "indexed": false,
          "internalType": "string",
          "name": "title",
          "type": "string"
        }
      ],
      "name": "AuctionCreated",
      "type": "event"
    },
    {
      "anonymous": false,
      "inputs": [
        {
          "indexed": true,
          "internalType": "uint256",
          "name": "auctionId",
          "type": "uint256"
        },
        {
          "indexed": true,
          "internalType": "address",
          "name": "winner",
          "type": "address"
        },
        {
          "indexed": false,
          "internalType": "uint256",
          "name": "winningBid",
          "type": "uint256"
        }
      ],
      "name": "AuctionEnded",
      "type": "event"
    },
    {
      "anonymous": false,
      "inputs": [
        {
          "indexed": true,
          "internalType": "uint256",
          "name": "auctionId",
          "type": "uint256"
        },
        {
          "indexed": true,
          "internalType": "address",
          "name": "bidder",
          "type": "address"
        },
        {
          "indexed": true,
          "internalType": "uint256",
          "name": "bidId",
          "type": "uint256"
        }
      ],
      "name": "BidPlaced",
      "type": "event"
    },
    {
      "inputs": [
        {
          "internalType": "uint256",
          "name": "",
          "type": "uint256"
        },
        {
          "internalType": "uint256",
          "name": "",
          "type": "uint256"
        }
      ],
      "name": "auctionBids",
      "outputs": [
        {
          "internalType": "uint256",
          "name": "bidId",
          "type": "uint256"
        },
        {
          "internalType": "euint32",
          "name": "amount",
          "type": "bytes32"
        },
        {
          "internalType": "address",
          "name": "bidder",
          "type": "address"
        },
        {
          "internalType": "uint256",
          "name": "timestamp",
          "type": "uint256"
        },
        {
          "internalType": "bool",
          "name": "isRevealed",
          "type": "bool"
        }
      ],
      "stateMutability": "view",
      "type": "function"
    },
    {
      "inputs": [],
      "name": "auctionCounter",
      "outputs": [
        {
          "internalType": "uint256",
          "name": "",
          "type": "uint256"
        }
      ],
      "stateMutability": "view",
      "type": "function"
    },
    {
      "inputs": [
        {
          "internalType": "uint256",
          "name": "",
          "type": "uint256"
        }
      ],
      "name": "auctions",
      "outputs": [
        {
          "internalType": "uint256",
          "name": "auctionId",
          "type": "uint256"
        },
        {
          "internalType": "euint32",
          "name": "reservePrice",
          "type": "bytes32"
        },
        {
          "internalType": "euint32",
          "name": "highestBid",
          "type": "bytes32"
        },
        {
          "internalType": "uint256",
          "name": "bidCount",
          "type": "uint256"
        },
        {
          "internalType": "bool",
          "name": "isActive",
          "type": "bool"
        },
        {
          "internalType": "bool",
          "name": "isEnded",
          "type": "bool"
        },
        {
          "internalType": "string",
          "name": "title",
          "type": "string"
        },
        {
          "internalType": "string",
          "name": "description",
          "type": "string"
        },
        {
          "internalType": "string",
          "name": "imageUrl",
          "type": "string"
        },
        {
          "internalType": "string",
          "name": "location",
          "type": "string"
        },
        {
          "internalType": "uint8",
          "name": "bedrooms",
          "type": "uint8"
        },
        {
          "internalType": "uint8",
          "name": "bathrooms",
          "type": "uint8"
        },
        {
          "internalType": "uint32",
          "name": "squareFeet",
          "type": "uint32"
        },
        {
          "internalType": "address",
          "name": "seller",
          "type": "address"
        },
        {
          "internalType": "uint256",
          "name": "startTime",
          "type": "uint256"
        },
        {
          "internalType": "uint256",
          "name": "endTime",
          "type": "uint256"
        },
        {
          "internalType": "address",
          "name": "currentLeader",
          "type": "address"
        }
      ],
      "stateMutability": "view",
      "type": "function"
    },
    {
      "inputs": [],
      "name": "bidCounter",
      "outputs": [
        {
          "internalType": "uint256",
          "name": "",
          "type": "uint256"
        }
      ],
      "stateMutability": "view",
      "type": "function"
    },
    {
      "inputs": [
        {
          "internalType": "string",
          "name": "_title",
          "type": "string"
        },
        {
          "internalType": "string",
          "name": "_description",
          "type": "string"
        },
        {
          "internalType": "string",
          "name": "_imageUrl",
          "type": "string"
        },
        {
          "internalType": "string",
          "name": "_location",
          "type": "string"
        },
        {
          "internalType": "uint8",
          "name": "_bedrooms",
          "type": "uint8"
        },
        {
          "internalType": "uint8",
          "name": "_bathrooms",
          "type": "uint8"
        },
        {
          "internalType": "uint32",
          "name": "_squareFeet",
          "type": "uint32"
        },
        {
          "internalType": "externalEuint32",
          "name": "_reservePrice",
          "type": "bytes32"
        },
        {
          "internalType": "uint256",
          "name": "_duration",
          "type": "uint256"
        },
        {
          "internalType": "bytes",
          "name": "_inputProof",
          "type": "bytes"
        }
      ],
      "name": "createAuction",
      "outputs": [
        {
          "internalType": "uint256",
          "name": "",
          "type": "uint256"
        }
      ],
      "stateMutability": "nonpayable",
      "type": "function"
    },
    {
      "inputs": [
        {
          "internalType": "uint256",
          "name": "auctionId",
          "type": "uint256"
        }
      ],
      "name": "endAuction",
      "outputs": [],
      "stateMutability": "nonpayable",
      "type": "function"
    },
    {
      "inputs": [
        {
          "internalType": "uint256",
          "name": "auctionId",
          "type": "uint256"
        }
      ],
      "name": "getAuctionBids",
      "outputs": [
        {
          "components": [
            {
              "internalType": "uint256",
              "name": "bidId",
              "type": "uint256"
            },
            {
              "internalType": "euint32",
              "name": "amount",
              "type": "bytes32"
            },
            {
              "internalType": "address",
              "name": "bidder",
              "type": "address"
            },
            {
              "internalType": "uint256",
              "name": "timestamp",
              "type": "uint256"
            },
            {
              "internalType": "bool",
              "name": "isRevealed",
              "type": "bool"
            }
          ],
          "internalType": "struct WhisperBidBasic.Bid[]",
          "name": "",
          "type": "tuple[]"
        }
      ],
      "stateMutability": "view",
      "type": "function"
    },
    {
      "inputs": [],
      "name": "getAuctionCount",
      "outputs": [
        {
          "internalType": "uint256",
          "name": "",
          "type": "uint256"
        }
      ],
      "stateMutability": "view",
      "type": "function"
    },
    {
      "inputs": [
        {
          "internalType": "uint256",
          "name": "auctionId",
          "type": "uint256"
        }
      ],
      "name": "getAuctionInfo",
      "outputs": [
        {
          "internalType": "string",
          "name": "title",
          "type": "string"
        },
        {
          "internalType": "string",
          "name": "description",
          "type": "string"
        },
        {
          "internalType": "string",
          "name": "imageUrl",
          "type": "string"
        },
        {
          "internalType": "string",
          "name": "location",
          "type": "string"
        },
        {
          "internalType": "uint8",
          "name": "bedrooms",
          "type": "uint8"
        },
        {
          "internalType": "uint8",
          "name": "bathrooms",
          "type": "uint8"
        },
        {
          "internalType": "uint32",
          "name": "squareFeet",
          "type": "uint32"
        },
        {
          "internalType": "uint256",
          "name": "reservePrice",
          "type": "uint256"
        },
        {
          "internalType": "uint256",
          "name": "highestBid",
          "type": "uint256"
        },
        {
          "internalType": "uint256",
          "name": "bidCount",
          "type": "uint256"
        },
        {
          "internalType": "bool",
          "name": "isActive",
          "type": "bool"
        },
        {
          "internalType": "bool",
          "name": "isEnded",
          "type": "bool"
        },
        {
          "internalType": "address",
          "name": "seller",
          "type": "address"
        },
        {
          "internalType": "address",
          "name": "currentLeader",
          "type": "address"
        },
        {
          "internalType": "uint256",
          "name": "startTime",
          "type": "uint256"
        },
        {
          "internalType": "uint256",
          "name": "endTime",
          "type": "uint256"
        }
      ],
      "stateMutability": "view",
      "type": "function"
    },
    {
      "inputs": [
        {
          "internalType": "uint256",
          "name": "auctionId",
          "type": "uint256"
        }
      ],
      "name": "getBidCount",
      "outputs": [
        {
          "internalType": "uint256",
          "name": "",
          "type": "uint256"
        }
      ],
      "stateMutability": "view",
      "type": "function"
    },
    {
      "inputs": [
        {
          "internalType": "address",
          "name": "user",
          "type": "address"
        }
      ],
      "name": "getUserBids",
      "outputs": [
        {
          "internalType": "uint256[]",
          "name": "",
          "type": "uint256[]"
        }
      ],
      "stateMutability": "view",
      "type": "function"
    },
    {
      "inputs": [],
      "name": "owner",
      "outputs": [
        {
          "internalType": "address",
          "name": "",
          "type": "address"
        }
      ],
      "stateMutability": "view",
      "type": "function"
    },
    {
      "inputs": [
        {
          "internalType": "uint256",
          "name": "auctionId",
          "type": "uint256"
        },
        {
          "internalType": "externalEuint32",
          "name": "_bidAmount",
          "type": "bytes32"
        },
        {
          "internalType": "bytes",
          "name": "_inputProof",
          "type": "bytes"
        }
      ],
      "name": "placeBid",
      "outputs": [],
      "stateMutability": "nonpayable",
      "type": "function"
    },
    {
      "inputs": [],
      "name": "protocolId",
      "outputs": [
        {
          "internalType": "uint256",
          "name": "",
          "type": "uint256"
        }
      ],
      "stateMutability": "pure",
      "type": "function"
    }
  ],
  "bytecode": "0x6080604052346101605760006060610015610165565b828152826020820152826040820152015261002e610165565b606073687820221192c5b662b25367f70076a37bc79b6c9182815273848b0066793bcc60346da1f49049357399b8d59580602083015273a02cda4ca3a71d7c46997716f4283aa851c2881291826040820152731364cbbf2cdf5032c47d8226a6f6fbd2afcdacac938491015260018060a01b0319937f9e7b61f58c47dc699ac88507c4f5bb9f121c03808c5676a8078fe583e464970090858254161790557f9e7b61f58c47dc699ac88507c4f5bb9f121c03808c5676a8078fe583e464970190848254161790557f9e7b61f58c47dc699ac88507c4f5bb9f121c03808c5676a8078fe583e464970290838254161790557f9e7b61f58c47dc699ac88507c4f5bb9f121c03808c5676a8078fe583e4649703908282541617905533906004541617600455604051611b5c908161019b8239f35b600080fd5b60405190608082016001600160401b0381118382101761018457604052565b634e487b7160e01b600052604160045260246000fdfe608080604052600436101561001357600080fd5b60003560e01c90816303f6935414611532575080632a7fa6a514610baf5780633ec04a7d14610848578063571a26a0146106f75780635f93de491461067c5780636759789f1461052657806370b4768e146103f8578063744d3411146103cc5780638da5cb5b146103a3578063a7e766441461021d578063b9a2de3a1461023b578063c44e66401461021d578063da1f12ab146102005763fc3fc4ed146100b957600080fd5b346101fb5760203660031901126101fb576004356000526000602052604060002060098101546003820154600483015491600160a01b6001900380600c86015416600a86015491600b870154936005880161011390611667565b9661012060068a01611667565b9861012d60078201611667565b9060080161013a90611667565b906040519a8b9a610200808d528c016101529161170c565b8b810360208d01526101639161170c565b8a810360408c01526101749161170c565b89810360608b01526101859161170c565b9660ff831660808a01528260081c60ff1660a08a01528260101c63ffffffff1660c08a015260e089016000905261010089016000905261012089015260ff8116151561014089015260081c60ff16151561016088015260301c166101808601526101a08501526101c08401526101e08301520390f35b600080fd5b346101fb5760003660031901126101fb5760206040516127118152f35b346101fb5760003660031901126101fb576020600254604051908152f35b346101fb576020806003193601126101fb57600435600081815280835260409020600901546001600160a01b03906102799060301c8216151561178d565b816000526000835261029560ff600460406000200154166117d2565b8160005260008352600b6040600020015442111561035e5781600052600083528060096040600020015460301c163314908115610350575b501561031a577fd2aa34a4fdbbc6dff6a3e56f46e0f3ae2a31d7785ff3487aa5c95c642acea5016000928284528381526004604085200161010061ffff19825416179055604051848152a3005b60405162461bcd60e51b815260048101839052600e60248201526d139bdd08185d5d1a1bdc9a5e995960921b6044820152606490fd5b9050600454163314836102cd565b60405162461bcd60e51b815260048101849052601960248201527f41756374696f6e20686173206e6f7420656e64656420796574000000000000006044820152606490fd5b346101fb5760003660031901126101fb576004546040516001600160a01b039091168152602090f35b346101fb5760203660031901126101fb5760043560005260016020526020604060002054604051908152f35b346101fb576020806003193601126101fb576004356000526001906001815260406000209182549161042983611816565b92610437604051948561157b565b8084528184018095600052826000206000915b8383106104c2575050505060405192818401908285525180915260408401949160005b82811061047a5785870386f35b83518051885282810151838901526040808201516001600160a01b0316908901526060808201519089015260809081015115159088015260a09096019592810192840161046d565b946005858299976040999799516104d88161154d565b85548152848601548382015260028601546001600160a01b0316604082015260038601546060820152600486015460ff1615156080820152815297999698969794909201939201910161044a565b346101fb576020806003193601126101fb576001600160a01b0390600435828116908190036101fb5761055a60035461182d565b90600093600060028054935b8483106105ed578787876105798361182d565b9260005b8181106105c9575050506040519181839283018184528251809152816040850193019160005b8281106105b257505050500390f35b8351855286955093810193928101926001016105a3565b806105d860019285979561185f565b516105e3828661185f565b520193919361057d565b60009794979691929593965b8660005260018084526040600020805483101561066557898661061d85879461174c565b5001541614610630575b506001016105f9565b6001919661065e9189600052855261064c88604060002061174c565b5054610658828961185f565b5261177e565b9590610627565b509598929794969295505060019091019190610566565b346101fb5760403660031901126101fb576024356004356000526001602052604060002080548210156101fb5760a0916106b59161174c565b50805490600181015490600180851b0360028201541660ff60046003840154930154169260405194855260208501526040840152606083015215156080820152f35b346101fb5760203660031901126101fb5760043560005260006020526040600020805460018201549060028301549260038101549060048101546005820161073e90611667565b9361074b60068401611667565b61075760078501611667565b61076360088601611667565b91600986015497600160a01b6001900394600a8801549686600b8a015499600c015416996040519d8e809e61022095825260208201526040015260608d015260ff8116151560808d015260081c60ff16151560a08c01528060c08c01528a016107cb9161170c565b89810360e08b01526107dc9161170c565b8881036101008a01526107ee9161170c565b8781036101208901526108009161170c565b9460ff81166101408801528060081c60ff166101608801528060101c63ffffffff1661018088015260301c166101a08601526101c08501526101e08401526102008301520390f35b346101fb5760603660031901126101fb5760246004356044356001600160401b0381116101fb5761087d903690600401611600565b92908260005260206000815260018060a01b03916108a98360096040600020015460301c16151561178d565b84600052600082526108c560ff600460406000200154166117d2565b8460005260008252600b604060002001544211610b775784600052600082528260096040600020015460301c163314610b3f5761091661091d916003549761090c8961177e565b600355369161159c565b8435611873565b6109273082611ab4565b6109313382611ab4565b846000526000825260026040600020015482828215610b2f575b8315610b21575b6064867f9e7b61f58c47dc699ac88507c4f5bb9f121c03808c5676a8078fe583e464970154169360006040519586948593630d8c635960e21b855260048501528b8401528160448401525af1908115610b1557600091610ae8575b50856000526000835260406000209060028201556003600c8201916bffffffffffffffffffffffff60a01b923384825416179055016109ec815461177e565b9055856000526001835260406000209360405193610a098561154d565b88855284019283526040840192338452606085019442865260808101966000885280549068010000000000000000821015610ad35790610a4e9160018201815561174c565b989098610abf5750916004959391610a9698979593518855516001880155600287019251169082541617905551600384015551151591019060ff801983541691151516179055565b33907f0e54eff26401bf69b81b26f60bd85ef47f5d85275c1d268d84f68d6897431c47600080a4005b634e487b7160e01b60005260006004526000fd5b89634e487b7160e01b60005260416004526000fd5b90508281813d8311610b0e575b610aff818361157b565b810103126101fb5751876109ad565b503d610af5565b6040513d6000823e3d90fd5b50610b2a6119b2565b610952565b9150610b396119b2565b9161094b565b60405162461bcd60e51b8152600481018390526011818601527014d95b1b195c8818d85b9b9bdd08189a59607a1b6044820152606490fd5b60405162461bcd60e51b81526004810183905260118186015270105d58dd1a5bdb881a185cc8195b991959607a1b6044820152606490fd5b346101fb576101403660031901126101fb576004356001600160401b0381116101fb57610be09036906004016115e2565b6024356001600160401b0381116101fb57610bff9036906004016115e2565b6044356001600160401b0381116101fb57610c1e9036906004016115e2565b9160649182356001600160401b0381116101fb57610c409036906004016115e2565b6084359060ff821682036101fb5760a43560ff811681036101fb5760c4359263ffffffff841684036101fb57610124356001600160401b0381116101fb57610c8c903690600401611600565b978751156114f05761010435156114ae5760ff83161561146c5760ff84161561142a5763ffffffff8616156113e85750610cda610ce29160025499610cd08b61177e565b600255369161159c565b60e435611873565b90610ceb6119b2565b9361010435420142116113d257604051998a6102208101106001600160401b036102208d01111761114c5763ffffffff9760ff96879560208e8e61022082016040528152015260408d0152600060608d0152600160808d0152600060a08d01528960c08d015260e08c01526101008b01526101208a0152166101408801521661016086015216610180840152336101a0840152426101c08401526101043542016101e084015260006102008401528160005260006020526040600020928051845560208101516001850155604081015160028501556060810151600385015560048401610dea60808301511515829060ff801983541691151516179055565b60a0820151815461ff00191690151560081b61ff001617905560c08101518051906001600160401b03821161114c578190610e28600588015461162d565b601f811161137f575b50602090601f831160011461130d57600092611302575b50508160011b916000199060031b1c19161760058501555b60e08101518051906001600160401b03821161114c578190610e85600688015461162d565b601f81116112af575b50602090601f831160011461123d57600092611232575b50508160011b916000199060031b1c19161760068501555b6101008101518051906001600160401b03821161114c578190610ee3600788015461162d565b601f81116111df575b50602090601f831160011461116d57600092611162575b50508160011b916000199060031b1c19161760078501555b6101208101519384516001600160401b03811161114c57610f3f600883015461162d565b95601f8711611105575b602096508690601f831160011461109457600c93929160009183611089575b50508160011b916000199060031b1c19161760088201555b6009810160ff6101408501511681549061ff0061016087015160081b1665ffffffff000061018088015160101b16916601000000000000600160d01b036101a089015160301b169365ffffffffffff60d01b161717171790556101c0830151600a8201556101e0830151600b820155019061020060018060a01b03910151166bffffffffffffffffffffffff60a01b825416179055816000526000835261102e600160406000200154611a45565b8160005260008352611047600260406000200154611a45565b817fb928fabb4287b33fb3d59644b08cfd2e726532740f8ba9d42f17ece23fbff37f6040518581528061107e33958883019061170c565b0390a3604051908152f35b015190508880610f68565b9060088401600052876000209160005b601f19851681106110ee5750918391600193600c9695601f198116106110d5575b505050811b016008820155610f80565b015160001960f88460031b161c191690558880806110c5565b9192896001819286850151815501940192016110a4565b600883016000526020600020601f830160051c810160208410611145575b601f890160051c82018110611139575050610f49565b60008155600101611123565b5080611123565b634e487b7160e01b600052604160045260246000fd5b015190508680610f03565b9250600787016000526020600020906000935b601f19841685106111c4576001945083601f198116106111ab575b505050811b016007850155610f1b565b015160001960f88460031b161c1916905586808061119b565b81810151835560209485019460019093019290910190611180565b909150600787016000526020600020601f840160051c81016020851061122b575b90849392915b601f830160051c8201811061121c575050610eec565b60008155859450600101611206565b5080611200565b015190508680610ea5565b9250600687016000526020600020906000935b601f1984168510611294576001945083601f1981161061127b575b505050811b016006850155610ebd565b015160001960f88460031b161c1916905586808061126b565b81810151835560209485019460019093019290910190611250565b909150600687016000526020600020601f840160051c8101602085106112fb575b90849392915b601f830160051c820181106112ec575050610e8e565b600081558594506001016112d6565b50806112d0565b015190508680610e48565b9250600587016000526020600020906000935b601f1984168510611364576001945083601f1981161061134b575b505050811b016005850155610e60565b015160001960f88460031b161c1916905586808061133b565b81810151835560209485019460019093019290910190611320565b909150600587016000526020600020601f840160051c8101602085106113cb575b90849392915b601f830160051c820181106113bc575050610e31565b600081558594506001016113a6565b50806113a0565b634e487b7160e01b600052601160045260246000fd5b60405162461bcd60e51b815260206004820152601c60248201527f5371756172652066656574206d75737420626520706f736974697665000000006044820152fd5b60405162461bcd60e51b815260206004820152601a60248201527f42617468726f6f6d73206d75737420626520706f7369746976650000000000006044820152fd5b60405162461bcd60e51b815260206004820152601960248201527f426564726f6f6d73206d75737420626520706f736974697665000000000000006044820152fd5b60405162461bcd60e51b815260206004820152601960248201527f4475726174696f6e206d75737420626520706f736974697665000000000000006044820152fd5b60405162461bcd60e51b815260206004820152601d60248201527f41756374696f6e207469746c652063616e6e6f7420626520656d7074790000006044820152fd5b346101fb5760003660031901126101fb576020906003548152f35b60a081019081106001600160401b0382111761114c57604052565b6001600160401b03811161114c57604052565b90601f801991011681019081106001600160401b0382111761114c57604052565b9291926001600160401b03821161114c57604051916115c5601f8201601f19166020018461157b565b8294818452818301116101fb578281602093846000960137010152565b9080601f830112156101fb578160206115fd9335910161159c565b90565b9181601f840112156101fb578235916001600160401b0383116101fb57602083818601950101116101fb57565b90600182811c9216801561165d575b602083101461164757565b634e487b7160e01b600052602260045260246000fd5b91607f169161163c565b9060405191826000825461167a8161162d565b908184526020946001916001811690816000146116ea57506001146116ab575b5050506116a99250038361157b565b565b600090815285812095935091905b8183106116d25750506116a9935082010138808061169a565b855488840185015294850194879450918301916116b9565b925050506116a994925060ff191682840152151560051b82010138808061169a565b919082519283825260005b848110611738575050826000602080949584010152601f8019910116010190565b602081830181015184830182015201611717565b8054821015611768576000526005602060002091020190600090565b634e487b7160e01b600052603260045260246000fd5b60001981146113d25760010190565b1561179457565b60405162461bcd60e51b8152602060048201526016602482015275105d58dd1a5bdb88191bd95cc81b9bdd08195e1a5cdd60521b6044820152606490fd5b156117d957565b60405162461bcd60e51b815260206004820152601560248201527441756374696f6e206973206e6f742061637469766560581b6044820152606490fd5b6001600160401b03811161114c5760051b60200190565b9061183782611816565b611844604051918261157b565b8281528092611855601f1991611816565b0190602036910137565b80518210156117685760209160051b010190565b906118d591602060018060a01b0391827f9e7b61f58c47dc699ac88507c4f5bb9f121c03808c5676a8078fe583e4649701541660405180968196829463196d0b9b60e01b8452600484015233602484015260806044840152608483019061170c565b60046064830152600096879103925af19283156119a757829361196f575b507f9e7b61f58c47dc699ac88507c4f5bb9f121c03808c5676a8078fe583e4649700541690813b1561196c57604051630f8e573b60e21b8152600481018490523360248201529181908390604490829084905af19081156119605750611957575090565b6115fd90611568565b604051903d90823e3d90fd5b80fd5b9092506020813d60201161199f575b8161198b6020938361157b565b8101031261199b575191386118f3565b5080fd5b3d915061197e565b6040513d84823e3d90fd5b60018060a01b037f9e7b61f58c47dc699ac88507c4f5bb9f121c03808c5676a8078fe583e46497015416604051639cd07acb60e01b815260208160448160008096816004840152600460248401525af1918215611960578092611a1457505090565b9091506020823d602011611a3d575b81611a306020938361157b565b8101031261196c57505190565b3d9150611a23565b7f9e7b61f58c47dc699ac88507c4f5bb9f121c03808c5676a8078fe583e4649700546001600160a01b031690813b156101fb57600091604483926040519485938492635ca4b5b160e11b845260048401528160248401525af18015610b1557611aab5750565b6116a990611568565b7f9e7b61f58c47dc699ac88507c4f5bb9f121c03808c5676a8078fe583e4649700546001600160a01b031691823b156101fb57604051635ca4b5b160e11b815260048101929092526001600160a01b03166024820152906000908290604490829084905af18015610b1557611aab575056fea2646970667358221220dd7a11addb8720e47b1c1d85e05cb73ee22619183a8990cd4b03d9addd8649a864736f6c63430008180033",
  "linkReferences": {},
  "deployedLinkReferences": {}
}