{
  "_format": "hh-sol-artifact-1",
  "contractName": "WhisperBidBasic",
  "sourceName": "contracts/WhisperBidBasic.sol",
  "abi": [
    {
      "inputs": [],
      "stateMutability": "nonpayable",
      "type": "constructor"
    },
    {
      "anonymous": false,
      "inputs": [
        {
          "indexed": true,
          "internalType": "uint256",
          "name": "auctionId",
          "type": "uint256"
        },
        {
          "indexed": true,
          "internalType": "address",
          "name": "seller",
          "type": "address"
        },
        {
          "indexed": false,
          "internalType": "string",
          "name": "title",
          "type": "string"
        }
      ],
      "name": "AuctionCreated",
      "type": "event"
    },
    {
      "anonymous": false,
      "inputs": [
        {
          "indexed": true,
          "internalType": "uint256",
          "name": "auctionId",
          "type": "uint256"
        },
        {
          "indexed": true,
          "internalType": "address",
          "name": "winner",
          "type": "address"
        },
        {
          "indexed": false,
          "internalType": "uint256",
          "name": "winningBid",
          "type": "uint256"
        }
      ],
      "name": "AuctionEnded",
      "type": "event"
    },
    {
      "anonymous": false,
      "inputs": [
        {
          "indexed": true,
          "internalType": "uint256",
          "name": "auctionId",
          "type": "uint256"
        },
        {
          "indexed": true,
          "internalType": "address",
          "name": "bidder",
          "type": "address"
        },
        {
          "indexed": true,
          "internalType": "uint256",
          "name": "bidId",
          "type": "uint256"
        }
      ],
      "name": "BidPlaced",
      "type": "event"
    },
    {
      "inputs": [
        {
          "internalType": "uint256",
          "name": "",
          "type": "uint256"
        },
        {
          "internalType": "uint256",
          "name": "",
          "type": "uint256"
        }
      ],
      "name": "auctionBids",
      "outputs": [
        {
          "internalType": "uint256",
          "name": "bidId",
          "type": "uint256"
        },
        {
          "internalType": "uint256",
          "name": "amount",
          "type": "uint256"
        },
        {
          "internalType": "address",
          "name": "bidder",
          "type": "address"
        },
        {
          "internalType": "uint256",
          "name": "timestamp",
          "type": "uint256"
        },
        {
          "internalType": "bool",
          "name": "isRevealed",
          "type": "bool"
        }
      ],
      "stateMutability": "view",
      "type": "function"
    },
    {
      "inputs": [],
      "name": "auctionCounter",
      "outputs": [
        {
          "internalType": "uint256",
          "name": "",
          "type": "uint256"
        }
      ],
      "stateMutability": "view",
      "type": "function"
    },
    {
      "inputs": [
        {
          "internalType": "uint256",
          "name": "",
          "type": "uint256"
        }
      ],
      "name": "auctions",
      "outputs": [
        {
          "internalType": "uint256",
          "name": "auctionId",
          "type": "uint256"
        },
        {
          "internalType": "uint256",
          "name": "reservePrice",
          "type": "uint256"
        },
        {
          "internalType": "uint256",
          "name": "highestBid",
          "type": "uint256"
        },
        {
          "internalType": "uint256",
          "name": "bidCount",
          "type": "uint256"
        },
        {
          "internalType": "bool",
          "name": "isActive",
          "type": "bool"
        },
        {
          "internalType": "bool",
          "name": "isEnded",
          "type": "bool"
        },
        {
          "internalType": "string",
          "name": "title",
          "type": "string"
        },
        {
          "internalType": "string",
          "name": "description",
          "type": "string"
        },
        {
          "internalType": "string",
          "name": "imageUrl",
          "type": "string"
        },
        {
          "internalType": "address",
          "name": "seller",
          "type": "address"
        },
        {
          "internalType": "uint256",
          "name": "startTime",
          "type": "uint256"
        },
        {
          "internalType": "uint256",
          "name": "endTime",
          "type": "uint256"
        },
        {
          "internalType": "address",
          "name": "highestBidder",
          "type": "address"
        }
      ],
      "stateMutability": "view",
      "type": "function"
    },
    {
      "inputs": [],
      "name": "bidCounter",
      "outputs": [
        {
          "internalType": "uint256",
          "name": "",
          "type": "uint256"
        }
      ],
      "stateMutability": "view",
      "type": "function"
    },
    {
      "inputs": [
        {
          "internalType": "string",
          "name": "_title",
          "type": "string"
        },
        {
          "internalType": "string",
          "name": "_description",
          "type": "string"
        },
        {
          "internalType": "string",
          "name": "_imageUrl",
          "type": "string"
        },
        {
          "internalType": "uint256",
          "name": "_reservePrice",
          "type": "uint256"
        },
        {
          "internalType": "uint256",
          "name": "_duration",
          "type": "uint256"
        }
      ],
      "name": "createAuction",
      "outputs": [
        {
          "internalType": "uint256",
          "name": "",
          "type": "uint256"
        }
      ],
      "stateMutability": "nonpayable",
      "type": "function"
    },
    {
      "inputs": [
        {
          "internalType": "uint256",
          "name": "auctionId",
          "type": "uint256"
        }
      ],
      "name": "endAuction",
      "outputs": [],
      "stateMutability": "nonpayable",
      "type": "function"
    },
    {
      "inputs": [
        {
          "internalType": "uint256",
          "name": "auctionId",
          "type": "uint256"
        }
      ],
      "name": "getAuctionBids",
      "outputs": [
        {
          "components": [
            {
              "internalType": "uint256",
              "name": "bidId",
              "type": "uint256"
            },
            {
              "internalType": "uint256",
              "name": "amount",
              "type": "uint256"
            },
            {
              "internalType": "address",
              "name": "bidder",
              "type": "address"
            },
            {
              "internalType": "uint256",
              "name": "timestamp",
              "type": "uint256"
            },
            {
              "internalType": "bool",
              "name": "isRevealed",
              "type": "bool"
            }
          ],
          "internalType": "struct WhisperBidBasic.Bid[]",
          "name": "",
          "type": "tuple[]"
        }
      ],
      "stateMutability": "view",
      "type": "function"
    },
    {
      "inputs": [],
      "name": "getAuctionCount",
      "outputs": [
        {
          "internalType": "uint256",
          "name": "",
          "type": "uint256"
        }
      ],
      "stateMutability": "view",
      "type": "function"
    },
    {
      "inputs": [
        {
          "internalType": "uint256",
          "name": "auctionId",
          "type": "uint256"
        }
      ],
      "name": "getAuctionInfo",
      "outputs": [
        {
          "internalType": "string",
          "name": "title",
          "type": "string"
        },
        {
          "internalType": "string",
          "name": "description",
          "type": "string"
        },
        {
          "internalType": "string",
          "name": "imageUrl",
          "type": "string"
        },
        {
          "internalType": "uint256",
          "name": "reservePrice",
          "type": "uint256"
        },
        {
          "internalType": "uint256",
          "name": "highestBid",
          "type": "uint256"
        },
        {
          "internalType": "uint256",
          "name": "bidCount",
          "type": "uint256"
        },
        {
          "internalType": "bool",
          "name": "isActive",
          "type": "bool"
        },
        {
          "internalType": "bool",
          "name": "isEnded",
          "type": "bool"
        },
        {
          "internalType": "address",
          "name": "seller",
          "type": "address"
        },
        {
          "internalType": "address",
          "name": "highestBidder",
          "type": "address"
        },
        {
          "internalType": "uint256",
          "name": "startTime",
          "type": "uint256"
        },
        {
          "internalType": "uint256",
          "name": "endTime",
          "type": "uint256"
        }
      ],
      "stateMutability": "view",
      "type": "function"
    },
    {
      "inputs": [
        {
          "internalType": "uint256",
          "name": "auctionId",
          "type": "uint256"
        }
      ],
      "name": "getBidCount",
      "outputs": [
        {
          "internalType": "uint256",
          "name": "",
          "type": "uint256"
        }
      ],
      "stateMutability": "view",
      "type": "function"
    },
    {
      "inputs": [],
      "name": "owner",
      "outputs": [
        {
          "internalType": "address",
          "name": "",
          "type": "address"
        }
      ],
      "stateMutability": "view",
      "type": "function"
    },
    {
      "inputs": [
        {
          "internalType": "uint256",
          "name": "auctionId",
          "type": "uint256"
        }
      ],
      "name": "placeBid",
      "outputs": [],
      "stateMutability": "payable",
      "type": "function"
    }
  ],
  "bytecode": "0x608060405234801561001057600080fd5b50600480546001600160a01b031916331790556115a7806100326000396000f3fe6080604052600436106100a75760003560e01c80638da5cb5b116100645780638da5cb5b146101e05780639979ef4514610218578063a7e766441461022d578063b9a2de3a14610243578063c44e664014610263578063fc3fc4ed1461027857600080fd5b806303f69354146100ac578063571a26a0146100d557806358574dca1461010e5780635f93de491461012e57806370b4768e14610186578063744d3411146101b3575b600080fd5b3480156100b857600080fd5b506100c260035481565b6040519081526020015b60405180910390f35b3480156100e157600080fd5b506100f56100f0366004611035565b6102b0565b6040516100cc9d9c9b9a99989796959493929190611094565b34801561011a57600080fd5b506100c26101293660046111f1565b6104bf565b34801561013a57600080fd5b5061014e61014936600461128b565b610777565b6040805195865260208601949094526001600160a01b039092169284019290925260608301919091521515608082015260a0016100cc565b34801561019257600080fd5b506101a66101a1366004611035565b6107d1565b6040516100cc91906112ad565b3480156101bf57600080fd5b506100c26101ce366004611035565b60009081526001602052604090205490565b3480156101ec57600080fd5b50600454610200906001600160a01b031681565b6040516001600160a01b0390911681526020016100cc565b61022b610226366004611035565b61087d565b005b34801561023957600080fd5b506100c260025481565b34801561024f57600080fd5b5061022b61025e366004611035565b610bd5565b34801561026f57600080fd5b506002546100c2565b34801561028457600080fd5b50610298610293366004611035565b610dc8565b6040516100cc9c9b9a99989796959493929190611326565b600060208190529081526040902080546001820154600283015460038401546004850154600586018054959694959394929360ff80841694610100909404169291906102fb906113c4565b80601f0160208091040260200160405190810160405280929190818152602001828054610327906113c4565b80156103745780601f1061034957610100808354040283529160200191610374565b820191906000526020600020905b81548152906001019060200180831161035757829003601f168201915b505050505090806006018054610389906113c4565b80601f01602080910402602001604051908101604052809291908181526020018280546103b5906113c4565b80156104025780601f106103d757610100808354040283529160200191610402565b820191906000526020600020905b8154815290600101906020018083116103e557829003601f168201915b505050505090806007018054610417906113c4565b80601f0160208091040260200160405190810160405280929190818152602001828054610443906113c4565b80156104905780601f1061046557610100808354040283529160200191610490565b820191906000526020600020905b81548152906001019060200180831161047357829003601f168201915b50505060088401546009850154600a860154600b9096015494956001600160a01b03928316959194509250168d565b6000808651116105165760405162461bcd60e51b815260206004820152601d60248201527f41756374696f6e207469746c652063616e6e6f7420626520656d70747900000060448201526064015b60405180910390fd5b600082116105665760405162461bcd60e51b815260206004820152601960248201527f4475726174696f6e206d75737420626520706f73697469766500000000000000604482015260640161050d565b600083116105b65760405162461bcd60e51b815260206004820152601e60248201527f52657365727665207072696365206d75737420626520706f7369746976650000604482015260640161050d565b60028054600091826105c783611414565b919050559050604051806101a001604052808281526020018581526020016000815260200160008152602001600115158152602001600015158152602001888152602001878152602001868152602001336001600160a01b031681526020014281526020018442610638919061142d565b81526000602091820181905283815280825260409081902083518155918301516001830155820151600282015560608201516003820155608082015160048201805460a085015115156101000261ff00199315159390931661ffff199091161791909117905560c082015160058201906106b29082611497565b5060e082015160068201906106c79082611497565b5061010082015160078201906106dd9082611497565b506101208201516008820180546001600160a01b03199081166001600160a01b03938416179091556101408401516009840155610160840151600a84015561018090930151600b90920180549093169116179055604051339082907fb928fabb4287b33fb3d59644b08cfd2e726532740f8ba9d42f17ece23fbff37f90610765908b90611557565b60405180910390a39695505050505050565b6001602052816000526040600020818154811061079357600080fd5b6000918252602090912060059091020180546001820154600283015460038401546004909401549295509093506001600160a01b0316919060ff1685565b606060016000838152602001908152602001600020805480602002602001604051908101604052809291908181526020016000905b828210156108725760008481526020908190206040805160a08101825260058602909201805483526001808201548486015260028201546001600160a01b031692840192909252600381015460608401526004015460ff16151560808301529083529092019101610806565b505050509050919050565b6000818152602081905260409020600801546001600160a01b03166108dd5760405162461bcd60e51b8152602060048201526016602482015275105d58dd1a5bdb88191bd95cc81b9bdd08195e1a5cdd60521b604482015260640161050d565b60008181526020819052604090206004015460ff166109365760405162461bcd60e51b815260206004820152601560248201527441756374696f6e206973206e6f742061637469766560581b604482015260640161050d565b6000818152602081905260409020600a015442111561098b5760405162461bcd60e51b8152602060048201526011602482015270105d58dd1a5bdb881a185cc8195b991959607a1b604482015260640161050d565b6000818152602081905260409020600801546001600160a01b031633036109e85760405162461bcd60e51b815260206004820152601160248201527014d95b1b195c8818d85b9b9bdd08189a59607a1b604482015260640161050d565b6000818152602081905260409020600201543411610a585760405162461bcd60e51b815260206004820152602760248201527f426964206d75737420626520686967686572207468616e2063757272656e74206044820152661a1a59da195cdd60ca1b606482015260840161050d565b600081815260208190526040902060010154341015610ab95760405162461bcd60e51b815260206004820152601b60248201527f426964206d757374206d65657420726573657276652070726963650000000000604482015260640161050d565b6003805460009182610aca83611414565b909155506000838152602081905260408120346002820155600b810180546001600160a01b03191633179055600301805492935090610b0883611414565b90915550506000828152600160208181526040808420815160a08101835286815234818501908152338285018181524260608501908152608085018981528654808b018855968b52978a2094516005909602909401948555915196840196909655516002830180546001600160a01b0319166001600160a01b0390921691909117905551600382015591516004909201805460ff19169215159290921790915551839285917f0e54eff26401bf69b81b26f60bd85ef47f5d85275c1d268d84f68d6897431c479190a45050565b6000818152602081905260409020600801546001600160a01b0316610c355760405162461bcd60e51b8152602060048201526016602482015275105d58dd1a5bdb88191bd95cc81b9bdd08195e1a5cdd60521b604482015260640161050d565b60008181526020819052604090206004015460ff16610c8e5760405162461bcd60e51b815260206004820152601560248201527441756374696f6e206973206e6f742061637469766560581b604482015260640161050d565b6000818152602081905260409020600a01544211610cee5760405162461bcd60e51b815260206004820152601960248201527f41756374696f6e20686173206e6f7420656e6465642079657400000000000000604482015260640161050d565b6000818152602081905260409020600801546001600160a01b0316331480610d2057506004546001600160a01b031633145b610d5d5760405162461bcd60e51b815260206004820152600e60248201526d139bdd08185d5d1a1bdc9a5e995960921b604482015260640161050d565b6000818152602081815260409182902060048101805461ffff1916610100179055600b81015460029091015492519283526001600160a01b03169183917fd2aa34a4fdbbc6dff6a3e56f46e0f3ae2a31d7785ff3487aa5c95c642acea501910160405180910390a350565b60608060606000806000806000806000806000806000808f815260200190815260200160002090508060050181600601826007018360010154846002015485600301548660040160009054906101000a900460ff168760040160019054906101000a900460ff168860080160009054906101000a90046001600160a01b031689600b0160009054906101000a90046001600160a01b03168a600901548b600a01548b8054610e75906113c4565b80601f0160208091040260200160405190810160405280929190818152602001828054610ea1906113c4565b8015610eee5780601f10610ec357610100808354040283529160200191610eee565b820191906000526020600020905b815481529060010190602001808311610ed157829003601f168201915b50505050509b508a8054610f01906113c4565b80601f0160208091040260200160405190810160405280929190818152602001828054610f2d906113c4565b8015610f7a5780601f10610f4f57610100808354040283529160200191610f7a565b820191906000526020600020905b815481529060010190602001808311610f5d57829003601f168201915b50505050509a50898054610f8d906113c4565b80601f0160208091040260200160405190810160405280929190818152602001828054610fb9906113c4565b80156110065780601f10610fdb57610100808354040283529160200191611006565b820191906000526020600020905b815481529060010190602001808311610fe957829003601f168201915b505050505099509c509c509c509c509c509c509c509c509c509c509c509c505091939597999b5091939597999b565b60006020828403121561104757600080fd5b5035919050565b6000815180845260005b8181101561107457602081850181015186830182015201611058565b506000602082860101526020601f19601f83011685010191505092915050565b60006101a08f83528e60208401528d60408401528c60608401528b151560808401526110c460a084018c15159052565b8060c08401526110d68184018b61104e565b905082810360e08401526110ea818a61104e565b90508281036101008401526110ff818961104e565b9150506111186101208301876001600160a01b03169052565b846101408301528361016083015261113c6101808301846001600160a01b03169052565b9e9d5050505050505050505050505050565b634e487b7160e01b600052604160045260246000fd5b600082601f83011261117557600080fd5b813567ffffffffffffffff808211156111905761119061114e565b604051601f8301601f19908116603f011681019082821181831017156111b8576111b861114e565b816040528381528660208588010111156111d157600080fd5b836020870160208301376000602085830101528094505050505092915050565b600080600080600060a0868803121561120957600080fd5b853567ffffffffffffffff8082111561122157600080fd5b61122d89838a01611164565b9650602088013591508082111561124357600080fd5b61124f89838a01611164565b9550604088013591508082111561126557600080fd5b5061127288828901611164565b9598949750949560608101359550608001359392505050565b6000806040838503121561129e57600080fd5b50508035926020909101359150565b602080825282518282018190526000919060409081850190868401855b82811015611319578151805185528681015187860152858101516001600160a01b0316868601526060808201519086015260809081015115159085015260a090930192908501906001016112ca565b5091979650505050505050565b6101808152600061133b61018083018f61104e565b828103602084015261134d818f61104e565b90508281036040840152611361818e61104e565b606084018d9052608084018c905260a084018b905289151560c085015288151560e08501526001600160a01b03888116610100860152871661012085015291506113a89050565b61014082019390935261016001529a9950505050505050505050565b600181811c908216806113d857607f821691505b6020821081036113f857634e487b7160e01b600052602260045260246000fd5b50919050565b634e487b7160e01b600052601160045260246000fd5b600060018201611426576114266113fe565b5060010190565b80820180821115611440576114406113fe565b92915050565b601f821115611492576000816000526020600020601f850160051c8101602086101561146f5750805b601f850160051c820191505b8181101561148e5782815560010161147b565b5050505b505050565b815167ffffffffffffffff8111156114b1576114b161114e565b6114c5816114bf84546113c4565b84611446565b602080601f8311600181146114fa57600084156114e25750858301515b600019600386901b1c1916600185901b17855561148e565b600085815260208120601f198616915b828110156115295788860151825594840194600190910190840161150a565b50858210156115475787850151600019600388901b60f8161c191681555b5050505050600190811b01905550565b60208152600061156a602083018461104e565b939250505056fea2646970667358221220239b0937a2af5cbe88886ca98b01843ea85746c297ab90421acd679cc130e57d64736f6c63430008180033",
  "linkReferences": {},
  "deployedLinkReferences": {}
}