{
  "_format": "hh-sol-artifact-1",
  "contractName": "WhisperBidBasic",
  "sourceName": "contracts/WhisperBidBasic.sol",
  "abi": [
    {
      "inputs": [],
      "stateMutability": "nonpayable",
      "type": "constructor"
    },
    {
      "anonymous": false,
      "inputs": [
        {
          "indexed": true,
          "internalType": "uint256",
          "name": "auctionId",
          "type": "uint256"
        },
        {
          "indexed": true,
          "internalType": "address",
          "name": "seller",
          "type": "address"
        },
        {
          "indexed": false,
          "internalType": "string",
          "name": "title",
          "type": "string"
        }
      ],
      "name": "AuctionCreated",
      "type": "event"
    },
    {
      "anonymous": false,
      "inputs": [
        {
          "indexed": true,
          "internalType": "uint256",
          "name": "auctionId",
          "type": "uint256"
        },
        {
          "indexed": true,
          "internalType": "address",
          "name": "winner",
          "type": "address"
        },
        {
          "indexed": false,
          "internalType": "uint256",
          "name": "winningBid",
          "type": "uint256"
        }
      ],
      "name": "AuctionEnded",
      "type": "event"
    },
    {
      "anonymous": false,
      "inputs": [
        {
          "indexed": true,
          "internalType": "uint256",
          "name": "auctionId",
          "type": "uint256"
        },
        {
          "indexed": true,
          "internalType": "address",
          "name": "bidder",
          "type": "address"
        },
        {
          "indexed": true,
          "internalType": "uint256",
          "name": "bidId",
          "type": "uint256"
        }
      ],
      "name": "BidPlaced",
      "type": "event"
    },
    {
      "inputs": [
        {
          "internalType": "uint256",
          "name": "",
          "type": "uint256"
        },
        {
          "internalType": "uint256",
          "name": "",
          "type": "uint256"
        }
      ],
      "name": "auctionBids",
      "outputs": [
        {
          "internalType": "uint256",
          "name": "bidId",
          "type": "uint256"
        },
        {
          "internalType": "euint32",
          "name": "amount",
          "type": "bytes32"
        },
        {
          "internalType": "address",
          "name": "bidder",
          "type": "address"
        },
        {
          "internalType": "uint256",
          "name": "timestamp",
          "type": "uint256"
        },
        {
          "internalType": "bool",
          "name": "isRevealed",
          "type": "bool"
        }
      ],
      "stateMutability": "view",
      "type": "function"
    },
    {
      "inputs": [],
      "name": "auctionCounter",
      "outputs": [
        {
          "internalType": "uint256",
          "name": "",
          "type": "uint256"
        }
      ],
      "stateMutability": "view",
      "type": "function"
    },
    {
      "inputs": [
        {
          "internalType": "uint256",
          "name": "",
          "type": "uint256"
        }
      ],
      "name": "auctions",
      "outputs": [
        {
          "internalType": "uint256",
          "name": "auctionId",
          "type": "uint256"
        },
        {
          "internalType": "euint32",
          "name": "reservePrice",
          "type": "bytes32"
        },
        {
          "internalType": "uint256",
          "name": "bidCount",
          "type": "uint256"
        },
        {
          "internalType": "bool",
          "name": "isActive",
          "type": "bool"
        },
        {
          "internalType": "bool",
          "name": "isEnded",
          "type": "bool"
        },
        {
          "internalType": "string",
          "name": "title",
          "type": "string"
        },
        {
          "internalType": "string",
          "name": "description",
          "type": "string"
        },
        {
          "internalType": "string",
          "name": "imageUrl",
          "type": "string"
        },
        {
          "internalType": "string",
          "name": "location",
          "type": "string"
        },
        {
          "internalType": "uint8",
          "name": "bedrooms",
          "type": "uint8"
        },
        {
          "internalType": "uint8",
          "name": "bathrooms",
          "type": "uint8"
        },
        {
          "internalType": "uint32",
          "name": "squareFeet",
          "type": "uint32"
        },
        {
          "internalType": "address",
          "name": "seller",
          "type": "address"
        },
        {
          "internalType": "uint256",
          "name": "startTime",
          "type": "uint256"
        },
        {
          "internalType": "uint256",
          "name": "endTime",
          "type": "uint256"
        }
      ],
      "stateMutability": "view",
      "type": "function"
    },
    {
      "inputs": [],
      "name": "bidCounter",
      "outputs": [
        {
          "internalType": "uint256",
          "name": "",
          "type": "uint256"
        }
      ],
      "stateMutability": "view",
      "type": "function"
    },
    {
      "inputs": [
        {
          "internalType": "string",
          "name": "_title",
          "type": "string"
        },
        {
          "internalType": "string",
          "name": "_description",
          "type": "string"
        },
        {
          "internalType": "string",
          "name": "_imageUrl",
          "type": "string"
        },
        {
          "internalType": "string",
          "name": "_location",
          "type": "string"
        },
        {
          "internalType": "uint8",
          "name": "_bedrooms",
          "type": "uint8"
        },
        {
          "internalType": "uint8",
          "name": "_bathrooms",
          "type": "uint8"
        },
        {
          "internalType": "uint32",
          "name": "_squareFeet",
          "type": "uint32"
        },
        {
          "internalType": "externalEuint32",
          "name": "_reservePrice",
          "type": "bytes32"
        },
        {
          "internalType": "uint256",
          "name": "_duration",
          "type": "uint256"
        },
        {
          "internalType": "bytes",
          "name": "_inputProof",
          "type": "bytes"
        }
      ],
      "name": "createAuction",
      "outputs": [
        {
          "internalType": "uint256",
          "name": "",
          "type": "uint256"
        }
      ],
      "stateMutability": "nonpayable",
      "type": "function"
    },
    {
      "inputs": [
        {
          "internalType": "uint256",
          "name": "auctionId",
          "type": "uint256"
        }
      ],
      "name": "endAuction",
      "outputs": [],
      "stateMutability": "nonpayable",
      "type": "function"
    },
    {
      "inputs": [
        {
          "internalType": "uint256",
          "name": "auctionId",
          "type": "uint256"
        }
      ],
      "name": "getAuctionBids",
      "outputs": [
        {
          "components": [
            {
              "internalType": "uint256",
              "name": "bidId",
              "type": "uint256"
            },
            {
              "internalType": "euint32",
              "name": "amount",
              "type": "bytes32"
            },
            {
              "internalType": "address",
              "name": "bidder",
              "type": "address"
            },
            {
              "internalType": "uint256",
              "name": "timestamp",
              "type": "uint256"
            },
            {
              "internalType": "bool",
              "name": "isRevealed",
              "type": "bool"
            }
          ],
          "internalType": "struct WhisperBidBasic.Bid[]",
          "name": "",
          "type": "tuple[]"
        }
      ],
      "stateMutability": "view",
      "type": "function"
    },
    {
      "inputs": [],
      "name": "getAuctionCount",
      "outputs": [
        {
          "internalType": "uint256",
          "name": "",
          "type": "uint256"
        }
      ],
      "stateMutability": "view",
      "type": "function"
    },
    {
      "inputs": [
        {
          "internalType": "uint256",
          "name": "auctionId",
          "type": "uint256"
        }
      ],
      "name": "getAuctionInfo",
      "outputs": [
        {
          "internalType": "string",
          "name": "title",
          "type": "string"
        },
        {
          "internalType": "string",
          "name": "description",
          "type": "string"
        },
        {
          "internalType": "string",
          "name": "imageUrl",
          "type": "string"
        },
        {
          "internalType": "string",
          "name": "location",
          "type": "string"
        },
        {
          "internalType": "uint8",
          "name": "bedrooms",
          "type": "uint8"
        },
        {
          "internalType": "uint8",
          "name": "bathrooms",
          "type": "uint8"
        },
        {
          "internalType": "uint32",
          "name": "squareFeet",
          "type": "uint32"
        },
        {
          "internalType": "uint256",
          "name": "reservePrice",
          "type": "uint256"
        },
        {
          "internalType": "uint256",
          "name": "bidCount",
          "type": "uint256"
        },
        {
          "internalType": "bool",
          "name": "isActive",
          "type": "bool"
        },
        {
          "internalType": "bool",
          "name": "isEnded",
          "type": "bool"
        },
        {
          "internalType": "address",
          "name": "seller",
          "type": "address"
        },
        {
          "internalType": "uint256",
          "name": "startTime",
          "type": "uint256"
        },
        {
          "internalType": "uint256",
          "name": "endTime",
          "type": "uint256"
        }
      ],
      "stateMutability": "view",
      "type": "function"
    },
    {
      "inputs": [
        {
          "internalType": "uint256",
          "name": "auctionId",
          "type": "uint256"
        }
      ],
      "name": "getBidCount",
      "outputs": [
        {
          "internalType": "uint256",
          "name": "",
          "type": "uint256"
        }
      ],
      "stateMutability": "view",
      "type": "function"
    },
    {
      "inputs": [
        {
          "internalType": "address",
          "name": "user",
          "type": "address"
        }
      ],
      "name": "getUserBids",
      "outputs": [
        {
          "internalType": "uint256[]",
          "name": "",
          "type": "uint256[]"
        }
      ],
      "stateMutability": "view",
      "type": "function"
    },
    {
      "inputs": [],
      "name": "owner",
      "outputs": [
        {
          "internalType": "address",
          "name": "",
          "type": "address"
        }
      ],
      "stateMutability": "view",
      "type": "function"
    },
    {
      "inputs": [
        {
          "internalType": "uint256",
          "name": "auctionId",
          "type": "uint256"
        },
        {
          "internalType": "externalEuint32",
          "name": "_bidAmount",
          "type": "bytes32"
        },
        {
          "internalType": "bytes",
          "name": "_inputProof",
          "type": "bytes"
        }
      ],
      "name": "placeBid",
      "outputs": [],
      "stateMutability": "nonpayable",
      "type": "function"
    },
    {
      "inputs": [],
      "name": "protocolId",
      "outputs": [
        {
          "internalType": "uint256",
          "name": "",
          "type": "uint256"
        }
      ],
      "stateMutability": "pure",
      "type": "function"
    }
  ],
  "bytecode": "0x6080604052346101605760006060610015610165565b828152826020820152826040820152015261002e610165565b606073687820221192c5b662b25367f70076a37bc79b6c9182815273848b0066793bcc60346da1f49049357399b8d59580602083015273a02cda4ca3a71d7c46997716f4283aa851c2881291826040820152731364cbbf2cdf5032c47d8226a6f6fbd2afcdacac938491015260018060a01b0319937f9e7b61f58c47dc699ac88507c4f5bb9f121c03808c5676a8078fe583e464970090858254161790557f9e7b61f58c47dc699ac88507c4f5bb9f121c03808c5676a8078fe583e464970190848254161790557f9e7b61f58c47dc699ac88507c4f5bb9f121c03808c5676a8078fe583e464970290838254161790557f9e7b61f58c47dc699ac88507c4f5bb9f121c03808c5676a8078fe583e4649703908282541617905533906004541617600455604051611946908161019b8239f35b600080fd5b60405190608082016001600160401b0381118382101761018457604052565b634e487b7160e01b600052604160045260246000fdfe608080604052600436101561001357600080fd5b60003560e01c90816303f69354146113a3575080632a7fa6a514610a9a5780633ec04a7d14610818578063571a26a0146106df5780635f93de49146106645780636759789f1461050e57806370b4768e146103e0578063744d3411146103b45780638da5cb5b1461038b578063a7e7664414610205578063b9a2de3a14610223578063c44e664014610205578063da1f12ab146101e85763fc3fc4ed146100b957600080fd5b346101e35760203660031901126101e357600435600052600060205261014d6040600020600881015460028201549060038301549060098401549060ff600a8601549361017761010b600489016114d8565b9761016961011b600583016114d8565b9161015b6101376007610130600685016114d8565b93016114d8565b936040519d8e9d8e6101c090818152019061157d565b8d810360208f01529061157d565b908b820360408d015261157d565b9089820360608b015261157d565b8383166080890152600884811c841660a08a0152601085901c63ffffffff1660c08a0152600060e08a01526101008901979097528183161515610120890152951c16151561014086015260301c6001600160a01b03166101608501526101808401526101a08301520390f35b600080fd5b346101e35760003660031901126101e35760206040516127118152f35b346101e35760003660031901126101e3576020600254604051908152f35b346101e3576020806003193601126101e357600435600081815280835260409020600801546001600160a01b03906102619060301c821615156115fe565b816000526000835261027d60ff60036040600020015416611643565b8160005260008352600a604060002001544211156103465781600052600083528060086040600020015460301c163314908115610338575b5015610302577fd2aa34a4fdbbc6dff6a3e56f46e0f3ae2a31d7785ff3487aa5c95c642acea5016000928284528381526003604085200161010061ffff19825416179055604051848152a3005b60405162461bcd60e51b815260048101839052600e60248201526d139bdd08185d5d1a1bdc9a5e995960921b6044820152606490fd5b9050600454163314836102b5565b60405162461bcd60e51b815260048101849052601960248201527f41756374696f6e20686173206e6f7420656e64656420796574000000000000006044820152606490fd5b346101e35760003660031901126101e3576004546040516001600160a01b039091168152602090f35b346101e35760203660031901126101e35760043560005260016020526020604060002054604051908152f35b346101e3576020806003193601126101e3576004356000526001906001815260406000209182549161041183611687565b9261041f60405194856113ec565b8084528184018095600052826000206000915b8383106104aa575050505060405192818401908285525180915260408401949160005b8281106104625785870386f35b83518051885282810151838901526040808201516001600160a01b0316908901526060808201519089015260809081015115159088015260a090960195928101928401610455565b946005858299976040999799516104c0816113be565b85548152848601548382015260028601546001600160a01b0316604082015260038601546060820152600486015460ff16151560808201528152979996989697949092019392019101610432565b346101e3576020806003193601126101e3576001600160a01b0390600435828116908190036101e35761054260035461169e565b90600093600060028054935b8483106105d5578787876105618361169e565b9260005b8181106105b1575050506040519181839283018184528251809152816040850193019160005b82811061059a57505050500390f35b83518552869550938101939281019260010161058b565b806105c06001928597956116d0565b516105cb82866116d0565b5201939193610565565b60009794979691929593965b8660005260018084526040600020805483101561064d5789866106058587946115bd565b5001541614610618575b506001016105e1565b60019196610646918960005285526106348860406000206115bd565b505461064082896116d0565b526115ef565b959061060f565b50959892979496929550506001909101919061054e565b346101e35760403660031901126101e3576024356004356000526001602052604060002080548210156101e35760a09161069d916115bd565b50805490600181015490600180851b0360028201541660ff60046003840154930154169260405194855260208501526040840152606083015215156080820152f35b346101e35760203660031901126101e35760043560005260006020526040600020805460018201549060028301549260038101549060048101610721906114d8565b61072d600583016114d8565b610739600684016114d8565b90610746600785016114d8565b92600885015496600986015495600a0154966040519a8b9a6101e0938c5260208c015260408b015260ff8116151560608b015260081c60ff16151560808a01528060a08a015288016107979161157d565b87810360c08901526107a89161157d565b86810360e08801526107b99161157d565b8581036101008701526107cb9161157d565b60ff808516610120870152600885901c1661014086015263ffffffff601085901c1661016086015260309390931c6001600160a01b03166101808501526101a08401526101c08301520390f35b346101e35760603660031901126101e3576004356044356001600160401b0381116101e35761084b903690600401611471565b9190816000526020906000825260018060a01b03906108788260086040600020015460301c1615156115fe565b836000526000835261089460ff60036040600020015416611643565b8360005260008352600a604060002001544211610a615783600052600083528160086040600020015460301c163314610a28576108e56108ed91600354966108db886115ef565b600355369161140d565b6024356116e4565b916108f8308461189e565b610902338461189e565b61090b83611823565b8360005260008152600260406000200161092581546115ef565b90558360005260018152604060002060405191610941836113be565b8683528201938452604082013381526060830190428252608084019260008452805468010000000000000000811015610a1257610983916001820181556115bd565b9590956109fc576109d396600495518755516001870155600286019151166bffffffffffffffffffffffff60a01b82541617905551600384015551151591019060ff801983541691151516179055565b33907f0e54eff26401bf69b81b26f60bd85ef47f5d85275c1d268d84f68d6897431c47600080a4005b634e487b7160e01b600052600060045260246000fd5b634e487b7160e01b600052604160045260246000fd5b60405162461bcd60e51b815260048101849052601160248201527014d95b1b195c8818d85b9b9bdd08189a59607a1b6044820152606490fd5b60405162461bcd60e51b8152600481018490526011602482015270105d58dd1a5bdb881a185cc8195b991959607a1b6044820152606490fd5b346101e3576101403660031901126101e3576004356001600160401b0381116101e357610acb903690600401611453565b6024356001600160401b0381116101e357610aea903690600401611453565b9060449081356001600160401b0381116101e357610b0c903690600401611453565b9160649283356001600160401b0381116101e357610b2e903690600401611453565b946084359060ff821682036101e35760a43560ff811681036101e35760c4359263ffffffff841684036101e3576101043595610124356001600160401b0381116101e357610b80903690600401611471565b9990918951156113625788156113215760ff8416156112e05760ff85161561129f5763ffffffff87161561125e575050610bce610bd6916002549a610bc48c6115ef565b600255369161140d565b60e4356116e4565b90864201421161124857604051998a6101e08101106001600160401b036101e08d011117610a125763ffffffff9660ff958a60a08e89978f6101e0830160405282526020820152600060408201526001606082015260006080820152015260c08d015260e08c01526101008b015216610120890152166101408701521661016085015233610180850152426101a085015242016101c0840152816000526000602052604060002083518155602084015160018201556040840151600282015560038101610cb560608601511515829060ff801983541691151516179055565b6080850151815461ff00191690151560081b61ff001617905560a08401518051906001600160401b038211610a12578190610cf3600485015461149e565b601f81116111f5575b50602090601f831160011461118357600092611178575b50508160011b916000199060031b1c19161760048201555b60c08401518051906001600160401b038211610a12578190610d50600585015461149e565b601f8111611125575b50602090601f83116001146110b3576000926110a8575b50508160011b916000199060031b1c19161760058201555b60e08401518051906001600160401b038211610a12578190610dad600685015461149e565b601f8111611055575b50602090601f8311600114610fe357600092610fd8575b50508160011b916000199060031b1c19161760068201555b6101008401519384516001600160401b038111610a1257610e09600784015461149e565b95601f8711610f91575b602096508690601f8311600114610f1d579180600a94926101c094600092610f12575b50508160011b916000199060031b1c19161760078501555b6008840160ff6101208301511681549061ff0061014085015160081b1665ffffffff000061016086015160101b16916601000000000000600160d01b0361018087015160301b169365ffffffffffff60d01b161717171790556101a0810151600985015501519101558160005260008352610ed0600160406000200154611823565b817fb928fabb4287b33fb3d59644b08cfd2e726532740f8ba9d42f17ece23fbff37f60405185815280610f0733958883019061157d565b0390a3604051908152f35b015190508980610e36565b9060078501600052876000209160005b601f1985168110610f7a575092600a94926001926101c09583601f19811610610f61575b505050811b016007850155610e4e565b015160001960f88460031b161c19169055898080610f51565b919289600181928685015181550194019201610f2d565b600784016000526020600020601f830160051c810160208410610fd1575b601f890160051c82018110610fc5575050610e13565b60008155600101610faf565b5080610faf565b015190508680610dcd565b9250600684016000526020600020906000935b601f198416851061103a576001945083601f19811610611021575b505050811b016006820155610de5565b015160001960f88460031b161c19169055868080611011565b81810151835560209485019460019093019290910190610ff6565b909150600684016000526020600020601f840160051c8101602085106110a1575b90849392915b601f830160051c82018110611092575050610db6565b6000815585945060010161107c565b5080611076565b015190508680610d70565b9250600584016000526020600020906000935b601f198416851061110a576001945083601f198116106110f1575b505050811b016005820155610d88565b015160001960f88460031b161c191690558680806110e1565b818101518355602094850194600190930192909101906110c6565b909150600584016000526020600020601f840160051c810160208510611171575b90849392915b601f830160051c82018110611162575050610d59565b6000815585945060010161114c565b5080611146565b015190508680610d13565b9250600484016000526020600020906000935b601f19841685106111da576001945083601f198116106111c1575b505050811b016004820155610d2b565b015160001960f88460031b161c191690558680806111b1565b81810151835560209485019460019093019290910190611196565b909150600484016000526020600020601f840160051c810160208510611241575b90849392915b601f830160051c82018110611232575050610cfc565b6000815585945060010161121c565b5080611216565b634e487b7160e01b600052601160045260246000fd5b7f5371756172652066656574206d75737420626520706f736974697665000000006040519162461bcd60e51b835260206004840152601c6024840152820152fd5b7f42617468726f6f6d73206d75737420626520706f7369746976650000000000006040519162461bcd60e51b835260206004840152601a6024840152820152fd5b7f426564726f6f6d73206d75737420626520706f736974697665000000000000006040519162461bcd60e51b83526020600484015260196024840152820152fd5b7f4475726174696f6e206d75737420626520706f736974697665000000000000006040519162461bcd60e51b83526020600484015260196024840152820152fd5b7f41756374696f6e207469746c652063616e6e6f7420626520656d7074790000006040519162461bcd60e51b835260206004840152601d6024840152820152fd5b346101e35760003660031901126101e3576020906003548152f35b60a081019081106001600160401b03821117610a1257604052565b6001600160401b038111610a1257604052565b90601f801991011681019081106001600160401b03821117610a1257604052565b9291926001600160401b038211610a125760405191611436601f8201601f1916602001846113ec565b8294818452818301116101e3578281602093846000960137010152565b9080601f830112156101e35781602061146e9335910161140d565b90565b9181601f840112156101e3578235916001600160401b0383116101e357602083818601950101116101e357565b90600182811c921680156114ce575b60208310146114b857565b634e487b7160e01b600052602260045260246000fd5b91607f16916114ad565b906040519182600082546114eb8161149e565b9081845260209460019160018116908160001461155b575060011461151c575b50505061151a925003836113ec565b565b600090815285812095935091905b81831061154357505061151a935082010138808061150b565b8554888401850152948501948794509183019161152a565b9250505061151a94925060ff191682840152151560051b82010138808061150b565b919082519283825260005b8481106115a9575050826000602080949584010152601f8019910116010190565b602081830181015184830182015201611588565b80548210156115d9576000526005602060002091020190600090565b634e487b7160e01b600052603260045260246000fd5b60001981146112485760010190565b1561160557565b60405162461bcd60e51b8152602060048201526016602482015275105d58dd1a5bdb88191bd95cc81b9bdd08195e1a5cdd60521b6044820152606490fd5b1561164a57565b60405162461bcd60e51b815260206004820152601560248201527441756374696f6e206973206e6f742061637469766560581b6044820152606490fd5b6001600160401b038111610a125760051b60200190565b906116a882611687565b6116b560405191826113ec565b82815280926116c6601f1991611687565b0190602036910137565b80518210156115d95760209160051b010190565b9061174691602060018060a01b0391827f9e7b61f58c47dc699ac88507c4f5bb9f121c03808c5676a8078fe583e4649701541660405180968196829463196d0b9b60e01b8452600484015233602484015260806044840152608483019061157d565b60046064830152600096879103925af19283156118185782936117e0575b507f9e7b61f58c47dc699ac88507c4f5bb9f121c03808c5676a8078fe583e4649700541690813b156117dd57604051630f8e573b60e21b8152600481018490523360248201529181908390604490829084905af19081156117d157506117c8575090565b61146e906113d9565b604051903d90823e3d90fd5b80fd5b9092506020813d602011611810575b816117fc602093836113ec565b8101031261180c57519138611764565b5080fd5b3d91506117ef565b6040513d84823e3d90fd5b7f9e7b61f58c47dc699ac88507c4f5bb9f121c03808c5676a8078fe583e4649700546001600160a01b031690813b156101e357600091604483926040519485938492635ca4b5b160e11b845260048401528160248401525af18015611892576118895750565b61151a906113d9565b6040513d6000823e3d90fd5b7f9e7b61f58c47dc699ac88507c4f5bb9f121c03808c5676a8078fe583e4649700546001600160a01b031691823b156101e357604051635ca4b5b160e11b815260048101929092526001600160a01b03166024820152906000908290604490829084905af1801561189257611889575056fea2646970667358221220651d598dfa86a70500828a3a7f82fc0cbf1ac522e43375dfc0b9f17338aaa46b64736f6c63430008180033",
  "linkReferences": {},
  "deployedLinkReferences": {}
}