{
  "_format": "hh-sol-artifact-1",
  "contractName": "WhisperBidBasic",
  "sourceName": "contracts/WhisperBidBasic.sol",
  "abi": [
    {
      "inputs": [],
      "stateMutability": "nonpayable",
      "type": "constructor"
    },
    {
      "anonymous": false,
      "inputs": [
        {
          "indexed": true,
          "internalType": "uint256",
          "name": "auctionId",
          "type": "uint256"
        },
        {
          "indexed": true,
          "internalType": "address",
          "name": "seller",
          "type": "address"
        },
        {
          "indexed": false,
          "internalType": "string",
          "name": "title",
          "type": "string"
        }
      ],
      "name": "AuctionCreated",
      "type": "event"
    },
    {
      "anonymous": false,
      "inputs": [
        {
          "indexed": true,
          "internalType": "uint256",
          "name": "auctionId",
          "type": "uint256"
        },
        {
          "indexed": true,
          "internalType": "address",
          "name": "winner",
          "type": "address"
        },
        {
          "indexed": false,
          "internalType": "uint256",
          "name": "winningBid",
          "type": "uint256"
        }
      ],
      "name": "AuctionEnded",
      "type": "event"
    },
    {
      "anonymous": false,
      "inputs": [
        {
          "indexed": true,
          "internalType": "uint256",
          "name": "auctionId",
          "type": "uint256"
        },
        {
          "indexed": true,
          "internalType": "address",
          "name": "bidder",
          "type": "address"
        },
        {
          "indexed": true,
          "internalType": "uint256",
          "name": "bidId",
          "type": "uint256"
        }
      ],
      "name": "BidPlaced",
      "type": "event"
    },
    {
      "inputs": [
        {
          "internalType": "uint256",
          "name": "",
          "type": "uint256"
        },
        {
          "internalType": "uint256",
          "name": "",
          "type": "uint256"
        }
      ],
      "name": "auctionBids",
      "outputs": [
        {
          "internalType": "uint256",
          "name": "bidId",
          "type": "uint256"
        },
        {
          "internalType": "uint256",
          "name": "amount",
          "type": "uint256"
        },
        {
          "internalType": "address",
          "name": "bidder",
          "type": "address"
        },
        {
          "internalType": "uint256",
          "name": "timestamp",
          "type": "uint256"
        },
        {
          "internalType": "bool",
          "name": "isRevealed",
          "type": "bool"
        }
      ],
      "stateMutability": "view",
      "type": "function"
    },
    {
      "inputs": [],
      "name": "auctionCounter",
      "outputs": [
        {
          "internalType": "uint256",
          "name": "",
          "type": "uint256"
        }
      ],
      "stateMutability": "view",
      "type": "function"
    },
    {
      "inputs": [
        {
          "internalType": "uint256",
          "name": "",
          "type": "uint256"
        }
      ],
      "name": "auctions",
      "outputs": [
        {
          "internalType": "uint256",
          "name": "auctionId",
          "type": "uint256"
        },
        {
          "internalType": "uint256",
          "name": "reservePrice",
          "type": "uint256"
        },
        {
          "internalType": "uint256",
          "name": "highestBid",
          "type": "uint256"
        },
        {
          "internalType": "uint256",
          "name": "bidCount",
          "type": "uint256"
        },
        {
          "internalType": "bool",
          "name": "isActive",
          "type": "bool"
        },
        {
          "internalType": "bool",
          "name": "isEnded",
          "type": "bool"
        },
        {
          "internalType": "string",
          "name": "title",
          "type": "string"
        },
        {
          "internalType": "string",
          "name": "description",
          "type": "string"
        },
        {
          "internalType": "string",
          "name": "imageUrl",
          "type": "string"
        },
        {
          "internalType": "address",
          "name": "seller",
          "type": "address"
        },
        {
          "internalType": "uint256",
          "name": "startTime",
          "type": "uint256"
        },
        {
          "internalType": "uint256",
          "name": "endTime",
          "type": "uint256"
        },
        {
          "internalType": "address",
          "name": "highestBidder",
          "type": "address"
        }
      ],
      "stateMutability": "view",
      "type": "function"
    },
    {
      "inputs": [],
      "name": "bidCounter",
      "outputs": [
        {
          "internalType": "uint256",
          "name": "",
          "type": "uint256"
        }
      ],
      "stateMutability": "view",
      "type": "function"
    },
    {
      "inputs": [
        {
          "internalType": "string",
          "name": "_title",
          "type": "string"
        },
        {
          "internalType": "string",
          "name": "_description",
          "type": "string"
        },
        {
          "internalType": "string",
          "name": "_imageUrl",
          "type": "string"
        },
        {
          "internalType": "uint256",
          "name": "_reservePrice",
          "type": "uint256"
        },
        {
          "internalType": "uint256",
          "name": "_duration",
          "type": "uint256"
        }
      ],
      "name": "createAuction",
      "outputs": [
        {
          "internalType": "uint256",
          "name": "",
          "type": "uint256"
        }
      ],
      "stateMutability": "nonpayable",
      "type": "function"
    },
    {
      "inputs": [
        {
          "internalType": "uint256",
          "name": "auctionId",
          "type": "uint256"
        }
      ],
      "name": "endAuction",
      "outputs": [],
      "stateMutability": "nonpayable",
      "type": "function"
    },
    {
      "inputs": [
        {
          "internalType": "uint256",
          "name": "auctionId",
          "type": "uint256"
        }
      ],
      "name": "getAuctionBids",
      "outputs": [
        {
          "components": [
            {
              "internalType": "uint256",
              "name": "bidId",
              "type": "uint256"
            },
            {
              "internalType": "uint256",
              "name": "amount",
              "type": "uint256"
            },
            {
              "internalType": "address",
              "name": "bidder",
              "type": "address"
            },
            {
              "internalType": "uint256",
              "name": "timestamp",
              "type": "uint256"
            },
            {
              "internalType": "bool",
              "name": "isRevealed",
              "type": "bool"
            }
          ],
          "internalType": "struct WhisperBidBasic.Bid[]",
          "name": "",
          "type": "tuple[]"
        }
      ],
      "stateMutability": "view",
      "type": "function"
    },
    {
      "inputs": [],
      "name": "getAuctionCount",
      "outputs": [
        {
          "internalType": "uint256",
          "name": "",
          "type": "uint256"
        }
      ],
      "stateMutability": "view",
      "type": "function"
    },
    {
      "inputs": [
        {
          "internalType": "uint256",
          "name": "auctionId",
          "type": "uint256"
        }
      ],
      "name": "getAuctionInfo",
      "outputs": [
        {
          "internalType": "string",
          "name": "title",
          "type": "string"
        },
        {
          "internalType": "string",
          "name": "description",
          "type": "string"
        },
        {
          "internalType": "string",
          "name": "imageUrl",
          "type": "string"
        },
        {
          "internalType": "uint256",
          "name": "reservePrice",
          "type": "uint256"
        },
        {
          "internalType": "uint256",
          "name": "highestBid",
          "type": "uint256"
        },
        {
          "internalType": "uint256",
          "name": "bidCount",
          "type": "uint256"
        },
        {
          "internalType": "bool",
          "name": "isActive",
          "type": "bool"
        },
        {
          "internalType": "bool",
          "name": "isEnded",
          "type": "bool"
        },
        {
          "internalType": "address",
          "name": "seller",
          "type": "address"
        },
        {
          "internalType": "address",
          "name": "highestBidder",
          "type": "address"
        },
        {
          "internalType": "uint256",
          "name": "startTime",
          "type": "uint256"
        },
        {
          "internalType": "uint256",
          "name": "endTime",
          "type": "uint256"
        }
      ],
      "stateMutability": "view",
      "type": "function"
    },
    {
      "inputs": [
        {
          "internalType": "uint256",
          "name": "auctionId",
          "type": "uint256"
        }
      ],
      "name": "getBidCount",
      "outputs": [
        {
          "internalType": "uint256",
          "name": "",
          "type": "uint256"
        }
      ],
      "stateMutability": "view",
      "type": "function"
    },
    {
      "inputs": [
        {
          "internalType": "address",
          "name": "user",
          "type": "address"
        }
      ],
      "name": "getUserBids",
      "outputs": [
        {
          "internalType": "uint256[]",
          "name": "",
          "type": "uint256[]"
        }
      ],
      "stateMutability": "view",
      "type": "function"
    },
    {
      "inputs": [],
      "name": "owner",
      "outputs": [
        {
          "internalType": "address",
          "name": "",
          "type": "address"
        }
      ],
      "stateMutability": "view",
      "type": "function"
    },
    {
      "inputs": [
        {
          "internalType": "uint256",
          "name": "auctionId",
          "type": "uint256"
        }
      ],
      "name": "placeBid",
      "outputs": [],
      "stateMutability": "payable",
      "type": "function"
    }
  ],
  "bytecode": "0x608060405234801561001057600080fd5b50600480546001600160a01b0319163317905561183b806100326000396000f3fe6080604052600436106100c25760003560e01c8063744d34111161007f578063a7e7664411610059578063a7e7664414610275578063b9a2de3a1461028b578063c44e6640146102ab578063fc3fc4ed146102c057600080fd5b8063744d3411146101fb5780638da5cb5b146102285780639979ef451461026057600080fd5b806303f69354146100c7578063571a26a0146100f057806358574dca146101295780635f93de49146101495780636759789f146101a157806370b4768e146101ce575b600080fd5b3480156100d357600080fd5b506100dd60035481565b6040519081526020015b60405180910390f35b3480156100fc57600080fd5b5061011061010b366004611246565b6102f8565b6040516100e79d9c9b9a999897969594939291906112a5565b34801561013557600080fd5b506100dd610144366004611402565b610507565b34801561015557600080fd5b5061016961016436600461149c565b6107bf565b6040805195865260208601949094526001600160a01b039092169284019290925260608301919091521515608082015260a0016100e7565b3480156101ad57600080fd5b506101c16101bc3660046114be565b610819565b6040516100e791906114ee565b3480156101da57600080fd5b506101ee6101e9366004611246565b6109e2565b6040516100e79190611532565b34801561020757600080fd5b506100dd610216366004611246565b60009081526001602052604090205490565b34801561023457600080fd5b50600454610248906001600160a01b031681565b6040516001600160a01b0390911681526020016100e7565b61027361026e366004611246565b610a8e565b005b34801561028157600080fd5b506100dd60025481565b34801561029757600080fd5b506102736102a6366004611246565b610de6565b3480156102b757600080fd5b506002546100dd565b3480156102cc57600080fd5b506102e06102db366004611246565b610fd9565b6040516100e79c9b9a999897969594939291906115ab565b600060208190529081526040902080546001820154600283015460038401546004850154600586018054959694959394929360ff808416946101009094041692919061034390611649565b80601f016020809104026020016040519081016040528092919081815260200182805461036f90611649565b80156103bc5780601f10610391576101008083540402835291602001916103bc565b820191906000526020600020905b81548152906001019060200180831161039f57829003601f168201915b5050505050908060060180546103d190611649565b80601f01602080910402602001604051908101604052809291908181526020018280546103fd90611649565b801561044a5780601f1061041f5761010080835404028352916020019161044a565b820191906000526020600020905b81548152906001019060200180831161042d57829003601f168201915b50505050509080600701805461045f90611649565b80601f016020809104026020016040519081016040528092919081815260200182805461048b90611649565b80156104d85780601f106104ad576101008083540402835291602001916104d8565b820191906000526020600020905b8154815290600101906020018083116104bb57829003601f168201915b50505060088401546009850154600a860154600b9096015494956001600160a01b03928316959194509250168d565b60008086511161055e5760405162461bcd60e51b815260206004820152601d60248201527f41756374696f6e207469746c652063616e6e6f7420626520656d70747900000060448201526064015b60405180910390fd5b600082116105ae5760405162461bcd60e51b815260206004820152601960248201527f4475726174696f6e206d75737420626520706f736974697665000000000000006044820152606401610555565b600083116105fe5760405162461bcd60e51b815260206004820152601e60248201527f52657365727665207072696365206d75737420626520706f73697469766500006044820152606401610555565b600280546000918261060f83611699565b919050559050604051806101a001604052808281526020018581526020016000815260200160008152602001600115158152602001600015158152602001888152602001878152602001868152602001336001600160a01b03168152602001428152602001844261068091906116b2565b81526000602091820181905283815280825260409081902083518155918301516001830155820151600282015560608201516003820155608082015160048201805460a085015115156101000261ff00199315159390931661ffff199091161791909117905560c082015160058201906106fa908261171c565b5060e0820151600682019061070f908261171c565b506101008201516007820190610725908261171c565b506101208201516008820180546001600160a01b03199081166001600160a01b03938416179091556101408401516009840155610160840151600a84015561018090930151600b90920180549093169116179055604051339082907fb928fabb4287b33fb3d59644b08cfd2e726532740f8ba9d42f17ece23fbff37f906107ad908b906117dc565b60405180910390a39695505050505050565b600160205281600052604060002081815481106107db57600080fd5b6000918252602090912060059091020180546001820154600283015460038401546004909401549295509093506001600160a01b0316919060ff1685565b6060600060035467ffffffffffffffff8111156108385761083861135f565b604051908082528060200260200182016040528015610861578160200160208202803683370190505b5090506000805b6002548110156109475760005b60008281526001602052604090205481101561093e57600082815260016020526040902080546001600160a01b0388169190839081106108b7576108b76117ef565b60009182526020909120600260059092020101546001600160a01b0316036109365760008281526001602052604090208054829081106108f9576108f96117ef565b90600052602060002090600502016000015484848151811061091d5761091d6117ef565b60209081029190910101528261093281611699565b9350505b600101610875565b50600101610868565b5060008167ffffffffffffffff8111156109635761096361135f565b60405190808252806020026020018201604052801561098c578160200160208202803683370190505b50905060005b828110156109d9578381815181106109ac576109ac6117ef565b60200260200101518282815181106109c6576109c66117ef565b6020908102919091010152600101610992565b50949350505050565b606060016000838152602001908152602001600020805480602002602001604051908101604052809291908181526020016000905b82821015610a835760008481526020908190206040805160a08101825260058602909201805483526001808201548486015260028201546001600160a01b031692840192909252600381015460608401526004015460ff16151560808301529083529092019101610a17565b505050509050919050565b6000818152602081905260409020600801546001600160a01b0316610aee5760405162461bcd60e51b8152602060048201526016602482015275105d58dd1a5bdb88191bd95cc81b9bdd08195e1a5cdd60521b6044820152606401610555565b60008181526020819052604090206004015460ff16610b475760405162461bcd60e51b815260206004820152601560248201527441756374696f6e206973206e6f742061637469766560581b6044820152606401610555565b6000818152602081905260409020600a0154421115610b9c5760405162461bcd60e51b8152602060048201526011602482015270105d58dd1a5bdb881a185cc8195b991959607a1b6044820152606401610555565b6000818152602081905260409020600801546001600160a01b03163303610bf95760405162461bcd60e51b815260206004820152601160248201527014d95b1b195c8818d85b9b9bdd08189a59607a1b6044820152606401610555565b6000818152602081905260409020600201543411610c695760405162461bcd60e51b815260206004820152602760248201527f426964206d75737420626520686967686572207468616e2063757272656e74206044820152661a1a59da195cdd60ca1b6064820152608401610555565b600081815260208190526040902060010154341015610cca5760405162461bcd60e51b815260206004820152601b60248201527f426964206d757374206d656574207265736572766520707269636500000000006044820152606401610555565b6003805460009182610cdb83611699565b909155506000838152602081905260408120346002820155600b810180546001600160a01b03191633179055600301805492935090610d1983611699565b90915550506000828152600160208181526040808420815160a08101835286815234818501908152338285018181524260608501908152608085018981528654808b018855968b52978a2094516005909602909401948555915196840196909655516002830180546001600160a01b0319166001600160a01b0390921691909117905551600382015591516004909201805460ff19169215159290921790915551839285917f0e54eff26401bf69b81b26f60bd85ef47f5d85275c1d268d84f68d6897431c479190a45050565b6000818152602081905260409020600801546001600160a01b0316610e465760405162461bcd60e51b8152602060048201526016602482015275105d58dd1a5bdb88191bd95cc81b9bdd08195e1a5cdd60521b6044820152606401610555565b60008181526020819052604090206004015460ff16610e9f5760405162461bcd60e51b815260206004820152601560248201527441756374696f6e206973206e6f742061637469766560581b6044820152606401610555565b6000818152602081905260409020600a01544211610eff5760405162461bcd60e51b815260206004820152601960248201527f41756374696f6e20686173206e6f7420656e64656420796574000000000000006044820152606401610555565b6000818152602081905260409020600801546001600160a01b0316331480610f3157506004546001600160a01b031633145b610f6e5760405162461bcd60e51b815260206004820152600e60248201526d139bdd08185d5d1a1bdc9a5e995960921b6044820152606401610555565b6000818152602081815260409182902060048101805461ffff1916610100179055600b81015460029091015492519283526001600160a01b03169183917fd2aa34a4fdbbc6dff6a3e56f46e0f3ae2a31d7785ff3487aa5c95c642acea501910160405180910390a350565b60608060606000806000806000806000806000806000808f815260200190815260200160002090508060050181600601826007018360010154846002015485600301548660040160009054906101000a900460ff168760040160019054906101000a900460ff168860080160009054906101000a90046001600160a01b031689600b0160009054906101000a90046001600160a01b03168a600901548b600a01548b805461108690611649565b80601f01602080910402602001604051908101604052809291908181526020018280546110b290611649565b80156110ff5780601f106110d4576101008083540402835291602001916110ff565b820191906000526020600020905b8154815290600101906020018083116110e257829003601f168201915b50505050509b508a805461111290611649565b80601f016020809104026020016040519081016040528092919081815260200182805461113e90611649565b801561118b5780601f106111605761010080835404028352916020019161118b565b820191906000526020600020905b81548152906001019060200180831161116e57829003601f168201915b50505050509a5089805461119e90611649565b80601f01602080910402602001604051908101604052809291908181526020018280546111ca90611649565b80156112175780601f106111ec57610100808354040283529160200191611217565b820191906000526020600020905b8154815290600101906020018083116111fa57829003601f168201915b505050505099509c509c509c509c509c509c509c509c509c509c509c509c505091939597999b5091939597999b565b60006020828403121561125857600080fd5b5035919050565b6000815180845260005b8181101561128557602081850181015186830182015201611269565b506000602082860101526020601f19601f83011685010191505092915050565b60006101a08f83528e60208401528d60408401528c60608401528b151560808401526112d560a084018c15159052565b8060c08401526112e78184018b61125f565b905082810360e08401526112fb818a61125f565b9050828103610100840152611310818961125f565b9150506113296101208301876001600160a01b03169052565b846101408301528361016083015261134d6101808301846001600160a01b03169052565b9e9d5050505050505050505050505050565b634e487b7160e01b600052604160045260246000fd5b600082601f83011261138657600080fd5b813567ffffffffffffffff808211156113a1576113a161135f565b604051601f8301601f19908116603f011681019082821181831017156113c9576113c961135f565b816040528381528660208588010111156113e257600080fd5b836020870160208301376000602085830101528094505050505092915050565b600080600080600060a0868803121561141a57600080fd5b853567ffffffffffffffff8082111561143257600080fd5b61143e89838a01611375565b9650602088013591508082111561145457600080fd5b61146089838a01611375565b9550604088013591508082111561147657600080fd5b5061148388828901611375565b9598949750949560608101359550608001359392505050565b600080604083850312156114af57600080fd5b50508035926020909101359150565b6000602082840312156114d057600080fd5b81356001600160a01b03811681146114e757600080fd5b9392505050565b6020808252825182820181905260009190848201906040850190845b818110156115265783518352928401929184019160010161150a565b50909695505050505050565b602080825282518282018190526000919060409081850190868401855b8281101561159e578151805185528681015187860152858101516001600160a01b0316868601526060808201519086015260809081015115159085015260a0909301929085019060010161154f565b5091979650505050505050565b610180815260006115c061018083018f61125f565b82810360208401526115d2818f61125f565b905082810360408401526115e6818e61125f565b606084018d9052608084018c905260a084018b905289151560c085015288151560e08501526001600160a01b038881166101008601528716610120850152915061162d9050565b61014082019390935261016001529a9950505050505050505050565b600181811c9082168061165d57607f821691505b60208210810361167d57634e487b7160e01b600052602260045260246000fd5b50919050565b634e487b7160e01b600052601160045260246000fd5b6000600182016116ab576116ab611683565b5060010190565b808201808211156116c5576116c5611683565b92915050565b601f821115611717576000816000526020600020601f850160051c810160208610156116f45750805b601f850160051c820191505b8181101561171357828155600101611700565b5050505b505050565b815167ffffffffffffffff8111156117365761173661135f565b61174a816117448454611649565b846116cb565b602080601f83116001811461177f57600084156117675750858301515b600019600386901b1c1916600185901b178555611713565b600085815260208120601f198616915b828110156117ae5788860151825594840194600190910190840161178f565b50858210156117cc5787850151600019600388901b60f8161c191681555b5050505050600190811b01905550565b6020815260006114e7602083018461125f565b634e487b7160e01b600052603260045260246000fdfea264697066735822122094fc2ed50583c67faf061235b4f6957bddd047b9863d88f3ded041dfc768461664736f6c63430008180033",
  "linkReferences": {},
  "deployedLinkReferences": {}
}