{
  "_format": "hh-sol-artifact-1",
  "contractName": "WhisperBidBasic",
  "sourceName": "contracts/WhisperBidBasic.sol",
  "abi": [
    {
      "inputs": [],
      "stateMutability": "nonpayable",
      "type": "constructor"
    },
    {
      "anonymous": false,
      "inputs": [
        {
          "indexed": true,
          "internalType": "uint256",
          "name": "auctionId",
          "type": "uint256"
        },
        {
          "indexed": true,
          "internalType": "address",
          "name": "seller",
          "type": "address"
        },
        {
          "indexed": false,
          "internalType": "string",
          "name": "title",
          "type": "string"
        }
      ],
      "name": "AuctionCreated",
      "type": "event"
    },
    {
      "anonymous": false,
      "inputs": [
        {
          "indexed": true,
          "internalType": "uint256",
          "name": "auctionId",
          "type": "uint256"
        },
        {
          "indexed": true,
          "internalType": "address",
          "name": "winner",
          "type": "address"
        },
        {
          "indexed": false,
          "internalType": "uint256",
          "name": "winningBid",
          "type": "uint256"
        }
      ],
      "name": "AuctionEnded",
      "type": "event"
    },
    {
      "anonymous": false,
      "inputs": [
        {
          "indexed": true,
          "internalType": "uint256",
          "name": "auctionId",
          "type": "uint256"
        },
        {
          "indexed": true,
          "internalType": "address",
          "name": "bidder",
          "type": "address"
        },
        {
          "indexed": true,
          "internalType": "uint256",
          "name": "bidId",
          "type": "uint256"
        }
      ],
      "name": "BidPlaced",
      "type": "event"
    },
    {
      "inputs": [
        {
          "internalType": "uint256",
          "name": "",
          "type": "uint256"
        },
        {
          "internalType": "uint256",
          "name": "",
          "type": "uint256"
        }
      ],
      "name": "auctionBids",
      "outputs": [
        {
          "internalType": "uint256",
          "name": "bidId",
          "type": "uint256"
        },
        {
          "internalType": "euint32",
          "name": "amount",
          "type": "bytes32"
        },
        {
          "internalType": "address",
          "name": "bidder",
          "type": "address"
        },
        {
          "internalType": "uint256",
          "name": "timestamp",
          "type": "uint256"
        },
        {
          "internalType": "bool",
          "name": "isRevealed",
          "type": "bool"
        }
      ],
      "stateMutability": "view",
      "type": "function"
    },
    {
      "inputs": [],
      "name": "auctionCounter",
      "outputs": [
        {
          "internalType": "uint256",
          "name": "",
          "type": "uint256"
        }
      ],
      "stateMutability": "view",
      "type": "function"
    },
    {
      "inputs": [
        {
          "internalType": "uint256",
          "name": "",
          "type": "uint256"
        }
      ],
      "name": "auctions",
      "outputs": [
        {
          "internalType": "uint256",
          "name": "auctionId",
          "type": "uint256"
        },
        {
          "internalType": "euint32",
          "name": "reservePrice",
          "type": "bytes32"
        },
        {
          "internalType": "euint32",
          "name": "highestBid",
          "type": "bytes32"
        },
        {
          "internalType": "uint256",
          "name": "bidCount",
          "type": "uint256"
        },
        {
          "internalType": "bool",
          "name": "isActive",
          "type": "bool"
        },
        {
          "internalType": "bool",
          "name": "isEnded",
          "type": "bool"
        },
        {
          "internalType": "string",
          "name": "title",
          "type": "string"
        },
        {
          "internalType": "string",
          "name": "description",
          "type": "string"
        },
        {
          "internalType": "string",
          "name": "imageUrl",
          "type": "string"
        },
        {
          "internalType": "string",
          "name": "location",
          "type": "string"
        },
        {
          "internalType": "uint8",
          "name": "bedrooms",
          "type": "uint8"
        },
        {
          "internalType": "uint8",
          "name": "bathrooms",
          "type": "uint8"
        },
        {
          "internalType": "uint32",
          "name": "squareFeet",
          "type": "uint32"
        },
        {
          "internalType": "address",
          "name": "seller",
          "type": "address"
        },
        {
          "internalType": "uint256",
          "name": "startTime",
          "type": "uint256"
        },
        {
          "internalType": "uint256",
          "name": "endTime",
          "type": "uint256"
        },
        {
          "internalType": "eaddress",
          "name": "highestBidder",
          "type": "bytes32"
        }
      ],
      "stateMutability": "view",
      "type": "function"
    },
    {
      "inputs": [],
      "name": "bidCounter",
      "outputs": [
        {
          "internalType": "uint256",
          "name": "",
          "type": "uint256"
        }
      ],
      "stateMutability": "view",
      "type": "function"
    },
    {
      "inputs": [
        {
          "internalType": "string",
          "name": "_title",
          "type": "string"
        },
        {
          "internalType": "string",
          "name": "_description",
          "type": "string"
        },
        {
          "internalType": "string",
          "name": "_imageUrl",
          "type": "string"
        },
        {
          "internalType": "string",
          "name": "_location",
          "type": "string"
        },
        {
          "internalType": "uint8",
          "name": "_bedrooms",
          "type": "uint8"
        },
        {
          "internalType": "uint8",
          "name": "_bathrooms",
          "type": "uint8"
        },
        {
          "internalType": "uint32",
          "name": "_squareFeet",
          "type": "uint32"
        },
        {
          "internalType": "externalEuint32",
          "name": "_reservePrice",
          "type": "bytes32"
        },
        {
          "internalType": "uint256",
          "name": "_duration",
          "type": "uint256"
        },
        {
          "internalType": "bytes",
          "name": "_inputProof",
          "type": "bytes"
        }
      ],
      "name": "createAuction",
      "outputs": [
        {
          "internalType": "uint256",
          "name": "",
          "type": "uint256"
        }
      ],
      "stateMutability": "nonpayable",
      "type": "function"
    },
    {
      "inputs": [
        {
          "internalType": "uint256",
          "name": "auctionId",
          "type": "uint256"
        }
      ],
      "name": "endAuction",
      "outputs": [],
      "stateMutability": "nonpayable",
      "type": "function"
    },
    {
      "inputs": [
        {
          "internalType": "uint256",
          "name": "auctionId",
          "type": "uint256"
        }
      ],
      "name": "getAuctionBids",
      "outputs": [
        {
          "components": [
            {
              "internalType": "uint256",
              "name": "bidId",
              "type": "uint256"
            },
            {
              "internalType": "euint32",
              "name": "amount",
              "type": "bytes32"
            },
            {
              "internalType": "address",
              "name": "bidder",
              "type": "address"
            },
            {
              "internalType": "uint256",
              "name": "timestamp",
              "type": "uint256"
            },
            {
              "internalType": "bool",
              "name": "isRevealed",
              "type": "bool"
            }
          ],
          "internalType": "struct WhisperBidBasic.Bid[]",
          "name": "",
          "type": "tuple[]"
        }
      ],
      "stateMutability": "view",
      "type": "function"
    },
    {
      "inputs": [],
      "name": "getAuctionCount",
      "outputs": [
        {
          "internalType": "uint256",
          "name": "",
          "type": "uint256"
        }
      ],
      "stateMutability": "view",
      "type": "function"
    },
    {
      "inputs": [
        {
          "internalType": "uint256",
          "name": "auctionId",
          "type": "uint256"
        }
      ],
      "name": "getAuctionInfo",
      "outputs": [
        {
          "internalType": "string",
          "name": "title",
          "type": "string"
        },
        {
          "internalType": "string",
          "name": "description",
          "type": "string"
        },
        {
          "internalType": "string",
          "name": "imageUrl",
          "type": "string"
        },
        {
          "internalType": "string",
          "name": "location",
          "type": "string"
        },
        {
          "internalType": "uint8",
          "name": "bedrooms",
          "type": "uint8"
        },
        {
          "internalType": "uint8",
          "name": "bathrooms",
          "type": "uint8"
        },
        {
          "internalType": "uint32",
          "name": "squareFeet",
          "type": "uint32"
        },
        {
          "internalType": "uint256",
          "name": "reservePrice",
          "type": "uint256"
        },
        {
          "internalType": "uint256",
          "name": "highestBid",
          "type": "uint256"
        },
        {
          "internalType": "uint256",
          "name": "bidCount",
          "type": "uint256"
        },
        {
          "internalType": "bool",
          "name": "isActive",
          "type": "bool"
        },
        {
          "internalType": "bool",
          "name": "isEnded",
          "type": "bool"
        },
        {
          "internalType": "address",
          "name": "seller",
          "type": "address"
        },
        {
          "internalType": "address",
          "name": "highestBidder",
          "type": "address"
        },
        {
          "internalType": "uint256",
          "name": "startTime",
          "type": "uint256"
        },
        {
          "internalType": "uint256",
          "name": "endTime",
          "type": "uint256"
        }
      ],
      "stateMutability": "view",
      "type": "function"
    },
    {
      "inputs": [
        {
          "internalType": "uint256",
          "name": "auctionId",
          "type": "uint256"
        }
      ],
      "name": "getBidCount",
      "outputs": [
        {
          "internalType": "uint256",
          "name": "",
          "type": "uint256"
        }
      ],
      "stateMutability": "view",
      "type": "function"
    },
    {
      "inputs": [
        {
          "internalType": "address",
          "name": "user",
          "type": "address"
        }
      ],
      "name": "getUserBids",
      "outputs": [
        {
          "internalType": "uint256[]",
          "name": "",
          "type": "uint256[]"
        }
      ],
      "stateMutability": "view",
      "type": "function"
    },
    {
      "inputs": [],
      "name": "owner",
      "outputs": [
        {
          "internalType": "address",
          "name": "",
          "type": "address"
        }
      ],
      "stateMutability": "view",
      "type": "function"
    },
    {
      "inputs": [
        {
          "internalType": "uint256",
          "name": "auctionId",
          "type": "uint256"
        },
        {
          "internalType": "externalEuint32",
          "name": "_bidAmount",
          "type": "bytes32"
        },
        {
          "internalType": "externalEaddress",
          "name": "_bidder",
          "type": "bytes32"
        },
        {
          "internalType": "bytes",
          "name": "_inputProof",
          "type": "bytes"
        }
      ],
      "name": "placeBid",
      "outputs": [],
      "stateMutability": "nonpayable",
      "type": "function"
    },
    {
      "inputs": [],
      "name": "protocolId",
      "outputs": [
        {
          "internalType": "uint256",
          "name": "",
          "type": "uint256"
        }
      ],
      "stateMutability": "pure",
      "type": "function"
    }
  ],
  "bytecode": "0x6080604052346101605760006060610015610165565b828152826020820152826040820152015261002e610165565b606073687820221192c5b662b25367f70076a37bc79b6c9182815273848b0066793bcc60346da1f49049357399b8d59580602083015273a02cda4ca3a71d7c46997716f4283aa851c2881291826040820152731364cbbf2cdf5032c47d8226a6f6fbd2afcdacac938491015260018060a01b0319937f9e7b61f58c47dc699ac88507c4f5bb9f121c03808c5676a8078fe583e464970090858254161790557f9e7b61f58c47dc699ac88507c4f5bb9f121c03808c5676a8078fe583e464970190848254161790557f9e7b61f58c47dc699ac88507c4f5bb9f121c03808c5676a8078fe583e464970290838254161790557f9e7b61f58c47dc699ac88507c4f5bb9f121c03808c5676a8078fe583e4649703908282541617905533906004541617600455604051611d01908161019b8239f35b600080fd5b60405190608082016001600160401b0381118382101761018457604052565b634e487b7160e01b600052604160045260246000fdfe608080604052600436101561001357600080fd5b60003560e01c90816303f69354146116c7575080632a7fa6a514610cbd578063571a26a014610b6d5780635f93de4914610af25780636759789f1461099c57806370b4768e1461086e578063744d3411146108425780638da5cb5b14610819578063a7e7664414610693578063b9a2de3a146106b1578063c44e664014610693578063cbd4c91f14610212578063da1f12ab146101f55763fc3fc4ed146100b957600080fd5b346101f05760203660031901126101f057600435600052600060205261014d60406000206009810154600382015490600483015490600a8401549060ff600b8601549361017761010b600589016117fc565b9761016961011b600683016117fc565b9161015b6101376008610130600785016117fc565b93016117fc565b936040519d8e9d8e6102009081815201906118a1565b8d810360208f0152906118a1565b908b820360408d01526118a1565b9089820360608b01526118a1565b958284166080890152828460081c1660a089015263ffffffff8460101c1660c0890152600060e08901526000610100890152610120880152818116151561014088015260081c16151561016086015260018060a01b039060301c1661018085015260006101a08501526101c08401526101e08301520390f35b600080fd5b346101f05760003660031901126101f05760206040516127118152f35b346101f05760803660031901126101f05760246004356064356001600160401b0381116101f057610247903690600401611795565b90928260005260206000815260018060a01b03906102738260096040600020015460301c16151561197f565b846000526000815261028f60ff600460406000200154166119c4565b8460005260008152600b60406000200154421161065c5784600052600081528160096040600020015460301c1633146106255760006102f4600354976102d489611913565b6003556102ec6102e5368984611731565b8735611a08565b963691611731565b8261033e600080516020611cac83398151915292868454169060405195868094819363196d0b9b60e01b83526044356004840152338d8401526080604484015260848301906118a1565b6007606483015203925af19182156105b8576000926105f6575b50837f9e7b61f58c47dc699ac88507c4f5bb9f121c03808c5676a8078fe583e46497005416803b156101f057604051630f8e573b60e21b815260048101849052336024820152906000908290604490829084905af180156105b8576105e7575b5086600052600083528260026040600020015491879288156105d7575b8681156105c4575b60649192541693600060405195869485936385362ee760e01b855260048501528b8401528160448401525af19081156105b85760009161058a575b50610458906003928860005260008552600c61043d6002604060002001548a85611c27565b8a600052600087526040600020906002820155015491611c27565b8660005260008352604060002090600c820155016104768154611913565b9055846000526001815260406000209160405191610493836116e2565b878352820190858252604083019133835260608401934285526080810195600087528054906801000000000000000082101561057557906104d9916001820181556118e1565b979097610561575092610533959261053898979592600495518755516001870155600286019151166bffffffffffffffffffffffff60a01b82541617905551600384015551151591019060ff801983541691151516179055565b611bc1565b33907f0e54eff26401bf69b81b26f60bd85ef47f5d85275c1d268d84f68d6897431c47600080a4005b634e487b7160e01b60005260006004526000fd5b88634e487b7160e01b60005260416004526000fd5b90508281813d83116105b1575b6105a18183611710565b810103126101f057516003610418565b503d610597565b6040513d6000823e3d90fd5b606491506105d0611b3d565b91506103dd565b92506105e1611b3d565b926103d5565b6105f0906116fd565b886103b8565b9091508281813d831161061e575b61060e8183611710565b810103126101f057519088610358565b503d610604565b6064906011846040519262461bcd60e51b845260048401528201527014d95b1b195c8818d85b9b9bdd08189a59607a1b6044820152fd5b6064906011846040519262461bcd60e51b8452600484015282015270105d58dd1a5bdb881a185cc8195b991959607a1b6044820152fd5b346101f05760003660031901126101f0576020600254604051908152f35b346101f0576020806003193601126101f057600435600081815280835260409020600901546001600160a01b03906106ef9060301c8216151561197f565b816000526000835261070b60ff600460406000200154166119c4565b8160005260008352600b604060002001544211156107d45781600052600083528060096040600020015460301c1633149081156107c6575b5015610790577fd2aa34a4fdbbc6dff6a3e56f46e0f3ae2a31d7785ff3487aa5c95c642acea5016000928284528381526004604085200161010061ffff19825416179055604051848152a3005b60405162461bcd60e51b815260048101839052600e60248201526d139bdd08185d5d1a1bdc9a5e995960921b6044820152606490fd5b905060045416331483610743565b60405162461bcd60e51b815260048101849052601960248201527f41756374696f6e20686173206e6f7420656e64656420796574000000000000006044820152606490fd5b346101f05760003660031901126101f0576004546040516001600160a01b039091168152602090f35b346101f05760203660031901126101f05760043560005260016020526020604060002054604051908152f35b346101f0576020806003193601126101f0576004356000526001906001815260406000209182549161089f83611922565b926108ad6040519485611710565b8084528184018095600052826000206000915b838310610938575050505060405192818401908285525180915260408401949160005b8281106108f05785870386f35b83518051885282810151838901526040808201516001600160a01b0316908901526060808201519089015260809081015115159088015260a0909601959281019284016108e3565b9460058582999760409997995161094e816116e2565b85548152848601548382015260028601546001600160a01b0316604082015260038601546060820152600486015460ff161515608082015281529799969896979490920193920191016108c0565b346101f0576020806003193601126101f0576001600160a01b0390600435828116908190036101f0576109d0600354611939565b90600093600060028054935b848310610a63578787876109ef83611939565b9260005b818110610a3f575050506040519181839283018184528251809152816040850193019160005b828110610a2857505050500390f35b835185528695509381019392810192600101610a19565b80610a4e60019285979561196b565b51610a59828661196b565b52019391936109f3565b60009794979691929593965b86600052600180845260406000208054831015610adb578986610a938587946118e1565b5001541614610aa6575b50600101610a6f565b60019196610ad491896000528552610ac28860406000206118e1565b5054610ace828961196b565b52611913565b9590610a9d565b5095989297949692955050600190910191906109dc565b346101f05760403660031901126101f0576024356004356000526001602052604060002080548210156101f05760a091610b2b916118e1565b50805490600181015490600180851b0360028201541660ff60046003840154930154169260405194855260208501526040840152606083015215156080820152f35b346101f05760203660031901126101f057600435600052600060205260406000208054600182015490600283015492600381015490600481015460058201610bb4906117fc565b610bc0600684016117fc565b610bcc600785016117fc565b90610bd9600886016117fc565b92600986015497600a87015495600b88015497600c0154986040519c8d9c8d6102209581526020015260408d015260608c015260ff8116151560808c015260081c60ff16151560a08b01528060c08b01528901610c35916118a1565b88810360e08a0152610c46916118a1565b878103610100890152610c58916118a1565b868103610120880152610c6a916118a1565b60ff808616610140880152600886901c1661016087015263ffffffff601086901c1661018087015260309490941c6001600160a01b03166101a08601526101c08501526101e08401526102008301520390f35b346101f0576101403660031901126101f0576004356001600160401b0381116101f057610cee903690600401611777565b6024356001600160401b0381116101f057610d0d903690600401611777565b6044356001600160401b0381116101f057610d2c903690600401611777565b9160649182356001600160401b0381116101f057610d4e903690600401611777565b9060843560ff811681036101f05760a4359060ff821682036101f05760c4359163ffffffff831683036101f057610124356001600160401b0381116101f057610d9b903690600401611795565b978751156116855761010435156116435760ff8416156116015760ff8316156115bf5763ffffffff85161561157d5750610de9610df19160025499610ddf8b611913565b6002553691611731565b60e435611a08565b91610dfa611b3d565b90610104354201421161156757600080516020611cac83398151915254604051639cd07acb60e01b8152600060048201819052600760248301529098916020918a9160449183916001600160a01b03165af19788156105b857600098611533575b506040519a8b6001600160401b036102208281810110920111176112ad5763ffffffff978a60c08e60ff99978f988b9961022084016040528352602083015260408201526000606082015260016080820152600060a0820152015260e08d01526101008c01526101208b0152166101408901521661016087015216610180850152336101a0850152426101c08501526101043542016101e085015261020084015281600052600060205260406000208351815560208401516001820155604084015160028201556060840151600382015560048101610f4c60808601511515829060ff801983541691151516179055565b60a0850151815461ff00191690151560081b61ff001617905560c08401518051906001600160401b0382116112ad578190610f8a60058501546117c2565b601f81116114e0575b50602090601f831160011461146e57600092611463575b50508160011b916000199060031b1c19161760058201555b60e08401518051906001600160401b0382116112ad578190610fe760068501546117c2565b601f8111611410575b50602090601f831160011461139e57600092611393575b50508160011b916000199060031b1c19161760068201555b6101008401518051906001600160401b0382116112ad57819061104560078501546117c2565b601f8111611340575b50602090601f83116001146112ce576000926112c3575b50508160011b916000199060031b1c19161760078201555b6101208401519384516001600160401b0381116112ad576110a160088401546117c2565b95601f8711611266575b602096508690601f83116001146111f2579180600c9492610200946000926111e7575b50508160011b916000199060031b1c19161760088501555b6009840160ff6101408301511681549061ff0061016085015160081b1665ffffffff000061018086015160101b16916601000000000000600160d01b036101a087015160301b169365ffffffffffff60d01b161717171790556101c0810151600a8501556101e0810151600b85015501519101558160005260008352611173600160406000200154611bc1565b816000526000835261118c600260406000200154611bc1565b81600052600083526111a5600c60406000200154611bc1565b817fb928fabb4287b33fb3d59644b08cfd2e726532740f8ba9d42f17ece23fbff37f604051858152806111dc3395888301906118a1565b0390a3604051908152f35b0151905089806110ce565b9060088501600052876000209160005b601f198516811061124f575092600c94926001926102009583601f19811610611236575b505050811b0160088501556110e6565b015160001960f88460031b161c19169055898080611226565b919289600181928685015181550194019201611202565b600884016000526020600020601f830160051c8101602084106112a6575b601f890160051c8201811061129a5750506110ab565b60008155600101611284565b5080611284565b634e487b7160e01b600052604160045260246000fd5b015190508680611065565b9250600784016000526020600020906000935b601f1984168510611325576001945083601f1981161061130c575b505050811b01600782015561107d565b015160001960f88460031b161c191690558680806112fc565b818101518355602094850194600190930192909101906112e1565b909150600784016000526020600020601f840160051c81016020851061138c575b90849392915b601f830160051c8201811061137d57505061104e565b60008155859450600101611367565b5080611361565b015190508680611007565b9250600684016000526020600020906000935b601f19841685106113f5576001945083601f198116106113dc575b505050811b01600682015561101f565b015160001960f88460031b161c191690558680806113cc565b818101518355602094850194600190930192909101906113b1565b909150600684016000526020600020601f840160051c81016020851061145c575b90849392915b601f830160051c8201811061144d575050610ff0565b60008155859450600101611437565b5080611431565b015190508680610faa565b9250600584016000526020600020906000935b601f19841685106114c5576001945083601f198116106114ac575b505050811b016005820155610fc2565b015160001960f88460031b161c1916905586808061149c565b81810151835560209485019460019093019290910190611481565b909150600584016000526020600020601f840160051c81016020851061152c575b90849392915b601f830160051c8201811061151d575050610f93565b60008155859450600101611507565b5080611501565b9097506020813d60201161155f575b8161154f60209383611710565b810103126101f05751968b610e5b565b3d9150611542565b634e487b7160e01b600052601160045260246000fd5b60405162461bcd60e51b815260206004820152601c60248201527f5371756172652066656574206d75737420626520706f736974697665000000006044820152fd5b60405162461bcd60e51b815260206004820152601a60248201527f42617468726f6f6d73206d75737420626520706f7369746976650000000000006044820152fd5b60405162461bcd60e51b815260206004820152601960248201527f426564726f6f6d73206d75737420626520706f736974697665000000000000006044820152fd5b60405162461bcd60e51b815260206004820152601960248201527f4475726174696f6e206d75737420626520706f736974697665000000000000006044820152fd5b60405162461bcd60e51b815260206004820152601d60248201527f41756374696f6e207469746c652063616e6e6f7420626520656d7074790000006044820152fd5b346101f05760003660031901126101f0576020906003548152f35b60a081019081106001600160401b038211176112ad57604052565b6001600160401b0381116112ad57604052565b90601f801991011681019081106001600160401b038211176112ad57604052565b9291926001600160401b0382116112ad576040519161175a601f8201601f191660200184611710565b8294818452818301116101f0578281602093846000960137010152565b9080601f830112156101f05781602061179293359101611731565b90565b9181601f840112156101f0578235916001600160401b0383116101f057602083818601950101116101f057565b90600182811c921680156117f2575b60208310146117dc57565b634e487b7160e01b600052602260045260246000fd5b91607f16916117d1565b9060405191826000825461180f816117c2565b9081845260209460019160018116908160001461187f5750600114611840575b50505061183e92500383611710565b565b600090815285812095935091905b81831061186757505061183e935082010138808061182f565b8554888401850152948501948794509183019161184e565b9250505061183e94925060ff191682840152151560051b82010138808061182f565b919082519283825260005b8481106118cd575050826000602080949584010152601f8019910116010190565b6020818301810151848301820152016118ac565b80548210156118fd576000526005602060002091020190600090565b634e487b7160e01b600052603260045260246000fd5b60001981146115675760010190565b6001600160401b0381116112ad5760051b60200190565b9061194382611922565b6119506040519182611710565b8281528092611961601f1991611922565b0190602036910137565b80518210156118fd5760209160051b010190565b1561198657565b60405162461bcd60e51b8152602060048201526016602482015275105d58dd1a5bdb88191bd95cc81b9bdd08195e1a5cdd60521b6044820152606490fd5b156119cb57565b60405162461bcd60e51b815260206004820152601560248201527441756374696f6e206973206e6f742061637469766560581b6044820152606490fd5b600080516020611cac8339815191525460405163196d0b9b60e01b81526004810192909252336024830152608060448301526001600160a01b039392829160209183918716908290611a5e9060848301906118a1565b60046064830152600096879103925af1908115611b32578291611afc575b5080937f9e7b61f58c47dc699ac88507c4f5bb9f121c03808c5676a8078fe583e4649700541690813b15611af857604051630f8e573b60e21b81526004810191909152336024820152919081908390604490829084905af1908115611aec5750611ae35750565b61183e906116fd565b604051903d90823e3d90fd5b8280fd5b90506020813d602011611b2a575b81611b1760209383611710565b81010312611b26575138611a7c565b5080fd5b3d9150611b0a565b6040513d84823e3d90fd5b60018060a01b03600080516020611cac8339815191525416604051639cd07acb60e01b815260208160448160008096816004840152600460248401525af1918215611aec578092611b8d57505090565b9091506020823d602011611bb9575b81611ba960209383611710565b81010312611bb657505190565b80fd5b3d9150611b9c565b7f9e7b61f58c47dc699ac88507c4f5bb9f121c03808c5676a8078fe583e4649700546001600160a01b031690813b156101f057600091604483926040519485938492635ca4b5b160e11b845260048401528160248401525af180156105b857611ae35750565b906064602092600060018060a01b03600080516020611cac83398151915254166040519687958694637702dcff60e01b86526004860152602485015260448401525af19081156105b857600091611c7c575090565b90506020813d602011611ca3575b81611c9760209383611710565b810103126101f0575190565b3d9150611c8a56fe9e7b61f58c47dc699ac88507c4f5bb9f121c03808c5676a8078fe583e4649701a26469706673582212208ddf834f35a50b0a2f96130f042ed6325107daa3e5dd16be57940a85f581481b64736f6c63430008180033",
  "linkReferences": {},
  "deployedLinkReferences": {}
}